:020000040800F2
:100000004808002045010008A91D0008AB1D000894
:10001000AF1D0008B31D0008B71D00080000000058
:10002000000000000000000000000000BB1D0008F0
:10003000BD1D000800000000BF1D0008C11D000814
:100040005F0100085F0100085F0100085F01000810
:100050005F0100085F0100085F0100085F01000800
:100060005F0100085F0100085F0100085F010008F0
:100070005F0100085F0100085F0100085F010008E0
:100080005F0100085F0100085F0100085F010008D0
:100090005F0100085F0100085F0100085F010008C0
:1000A0005F0100085F0100085F0100085F010008B0
:1000B0003F0D00085F0100085F0100085F010008B4
:1000C0005F0100085F0100085F0100085F01000890
:1000D0005F010008710800084B090008250A0008A4
:1000E0005F0100085F0100085F0100085F01000870
:1000F0005F0100085F0100085F0100085F01000860
:100100005F0100085F0100085F0100085F0100084F
:10011000FF0A0008D90B00085F0100085F01000812
:100120005F0100085F0100085F0100085F0100082F
:10013000DFF80CD003F0B4F900480047690100086B
:10014000480800200648804706480047FEE7FEE7CB
:10015000FEE7FEE7FEE7FEE7FEE7FEE7FEE7FEE777
:10016000AB3300083101000800F08CF86FF07F41DC
:10017000B1F1807F01D301201DE021F07F40401EBE
:100180004FF0E022506150170F22002807DA1307C2
:100190001D0E374B00F00F04241F1D5503E01307FD
:1001A0001C0E344B1C5400BF00204FF0E022906125
:1001B00007201061002008B100BFFEE700F099F8A9
:1001C00000F024F900202C4908704FF0E0208069ED
:1001D00000022A49086000BF4FF0E02080692749EB
:1001E0000968A1EB0020B0F5E11FF5D323480068B2
:1001F000A0F5E1102149086021480088401C2049F1
:100200000880084600881428E6DB0020088001F0FA
:10021000AAF801F0E0FD18480078052822D2DFE8AE
:1002200000F0030B11171D0000F0BEFF124800780C
:10023000401C1149087019E00F480078401C0E4915
:10024000087013E00C480078401C0B4908700DE062
:1002500009480078401C0849087007E0002006495A
:10026000087003E000200449087000BFB4E70000F4
:1002700018ED00E000E400E006000020000000208F
:100280000400002010B501F0BDFD4FF4803001F0F6
:10029000D9FD01F016FE21490870084600780128B2
:1002A00026D1002001F053FE002001F062FE4FF441
:1002B000806001F055FE022001F0DEF8102001F010
:1002C000EFF84FF4E0114FF4803001F023FE0120ED
:1002D00001F02CFE00BF392001F0D7FD0028FAD034
:1002E000022001F026FE00BF01F02CFE0828FBD101
:1002F00010BD10B500F018F800F052F800F0F1FC55
:1003000000224FF41641064800F079F900224FF41C
:100310001641044800F073F910BD000007000020EA
:10032000003801400044004008B501211D2001F0C3
:10033000D7FE0121324801F0BAFC4FF46040ADF81D
:10034000000003208DF8020004208DF80300000255
:10035000ADF8000003208DF8020010208DF8030096
:100360006946284801F0D2FB4FF48070ADF80000D8
:1003700003208DF8020010208DF803006946224802
:1003800001F0C4FB2020ADF8000003208DF802002E
:1003900010208DF8030069461A4801F0B7FB08BD2C
:1003A0007047704710B50446207800F0010028B16E
:1003B0004FF48061134801F056FC04E04FF4806173
:1003C000104801F052FC2078C0F3400028B14FF4EF
:1003D00080710D4801F047FC04E04FF480710A4839
:1003E00001F043FC2078C0F3800020B120210548B3
:1003F00001F039FC03E02021024801F036FC10BD79
:1004000000023000000C01400008014010B545F228
:10041000555001F0D7FC032001F0D7FC40F2E24038
:1004200001F0D6FC01F0D7FC01F0DAFC10BD0000B1
:1004300038B50446FD4884420FD125208DF80000D0
:1004400001208DF8010002208DF8020001208DF8B6
:100450000300684600F0A7FF24E0F54884420FD16E
:1004600026208DF8000001208DF8010003208DF872
:10047000020001208DF80300684600F094FF11E0AF
:10048000EC4884420ED127208DF8000001208DF821
:10049000010004208DF8020001208DF80300684659
:1004A00000F081FF38BD38B50446E04884421ED1D3
:1004B0000121042001F014FE0121880301F010FE47
:1004C0006015ADF8000018208DF8030003208DF8AA
:1004D00002006946D84801F019FB2015ADF800006C
:1004E00004208DF803006946D34801F00FFBD04883
:1004F00084421ED10121042001F0F2FD01214804B3
:1005000001F0FBFD0420ADF8000018208DF8030079
:1005100003208DF802006946C74801F0F7FA082069
:10052000ADF8000004208DF803006946C24801F0D0
:10053000EDFAC04884421ED10121082001F0D0FD0F
:100540000121880401F0D9FD2015ADF80000182024
:100550008DF8030003208DF802006946B74801F0CA
:10056000D5FAE014ADF8000004208DF803006946C8
:10057000B24801F0CBFAB24884421ED101211020CA
:1005800001F0AEFD0121C80401F0B7FD2015ADF862
:10059000000018208DF8030003208DF80200694642
:1005A000A84801F0B3FAE014ADF8000004208DF87B
:1005B00003006946A34801F0A9FAA34884421DD16B
:1005C0000121302001F08CFD0121080501F095FD8D
:1005D000A014ADF8000018208DF8030003208DF85A
:1005E00002006946974801F091FA0420ADF8000036
:1005F0008DF803006946954801F088FA38BD7FB54B
:1006000004460E4615460021204602F02AFD2046EB
:10061000FFF749FF2046FFF70BFF0020ADF804006D
:10062000ADF80600ADF80800ADF80C0000960C20FF
:10063000ADF80A006946204602F087FC2DB9012278
:1006400040F22551204602F018FD0121204602F01B
:1006500008FD764884420AD10098B0F5964F01D93A
:10066000022000E005207A49A1F86E0036E07048CB
:1006700084420AD10098B0F5964F01D9022000E0DB
:1006800005207449A1F86E0028E06A4884420AD126
:100690000098B0F5964F01D9022000E005206E4980
:1006A000A1F86E001AE0664884420AD10098B0F5BD
:1006B000964F01D9022000E005206849A1F86E009C
:1006C0000CE06148844209D10098B0F5964F01D9F9
:1006D000022000E005206249A1F86E007FBD10B540
:1006E00002460C4600235F495048824200D108E090
:1006F0004F48824201D15C4903E04E48824200D11A
:100700005A4991F8320088B1002303E0C85CE054F4
:10071000581C83B291F833009842F7DC91F833000B
:100720006086002081F83200012010BD0020FCE727
:1007300070B506460D463D48864225D1002240F25E
:10074000255102F09AFC688E414948860020A1F8A4
:100750006C00002404E0285D3D490855601CC4B2CB
:100760003B48408EA042F6DC8021304802F054FD28
:10077000374801782D4802F0E1FC012240F2266161
:100780002A4802F07AFC50E02948864225D100220E
:1007900040F2255102F071FC688E2E4948860020F7
:1007A000A1F86C00002404E0285D2A490855601C6B
:1007B000C4B22848408EA042F6DC80211C4802F0DA
:1007C0002BFD244801781A4802F0B8FC012240F2BF
:1007D0002661174802F051FC27E01648864224D1D2
:1007E000002240F2255102F048FC688E1A494886E2
:1007F0000020A1F86C00002404E0285D164908558B
:10080000601CC4B21448408EA042F6DC8021094826
:1008100002F002FD10480178064802F08FFC012228
:1008200040F22661034802F028FC70BD0038014008
:10083000004400400048004000080140000C014016
:10084000004C0040001001400050004000140140E6
:1008500038000020AA0000201C0100208E0100208A
:100860000002002072020020A6020020DA0200200E
:1008700010B540F22551FE4802F0E4FC08B3FC48F4
:1008800002F060FCC1B2FB48B0F8662034308154FD
:100890003438B0F86600401CF649A1F86600002024
:1008A000A1F86A000320A1F870000846B0F86600BD
:1008B000322849DB002240F22551ED4802F0DDFBF1
:1008C00042E040F22661EA4802F0BCFC50B3E9483D
:1008D000B0F86C00401CE749A1F86C000020A1F8BA
:1008E00068000120A1F870000846B0F86C00498E3D
:1008F00088420EDB002240F22661DD4802F0BDFB9B
:100900000220DC49A1F870000020A1F86C004886A4
:100910001AE0D848B0F86C00D64A115CD44802F00E
:100920000DFC11E0D2480088D3490870D04802F08D
:1009300009FCD1490870CE4802F004FCCE49087089
:100940001F21CB4802F075FC10BD10B540F22551B7
:10095000CA4802F077FC08B3C84802F0F3FBC1B202
:10096000C748B0F86620343081543438B0F8660097
:10097000401CC349A1F866000020A1F86A000320CA
:10098000A1F870000846B0F86600322849DB002262
:1009900040F22551B94802F070FB42E040F2266176
:1009A000B64802F04FFC50B3B548B0F86C00401C9C
:1009B000B349A1F86C000020A1F868000120A1F85B
:1009C00070000846B0F86C00498E88420EDB0220A9
:1009D000AB49A1F870000020A1F86C004886002205
:1009E00040F22661A54802F048FB1AE0A448B0F89E
:1009F0006C00A34A115CA14802F0A0FB11E09F48E3
:100A000000889D4908709D4802F09CFB9A49087037
:100A10009A4802F097FB984908701F21974802F006
:100A200008FC10BD10B540F22551964802F00AFCB2
:100A300008B3944802F086FBC1B29348B0F8662030
:100A4000343081543438B0F86600401C8E49A1F827
:100A500066000020A1F86A000320A1F87000084693
:100A6000B0F86600322849DB002240F22551854863
:100A700002F003FB42E040F22661824802F0E2FB12
:100A800050B38148B0F86C00401C7F49A1F86C005D
:100A90000020A1F868000120A1F870000846B0F815
:100AA0006C00498E88420EDB002240F226617548B8
:100AB00002F0E3FA02207449A1F870000020A1F8C6
:100AC0006C0048861AE07048B0F86C006E4A115C01
:100AD0006C4802F033FB11E06A48008866490870F0
:100AE000684802F02FFB64490870664802F02AFB50
:100AF000614908701F21634802F09BFB10BD10B5CF
:100B000040F22551614802F09DFB08B35F4802F0B6
:100B100019FBC1B25E48B0F86620343081543438D5
:100B2000B0F86600401C5A49A1F866000020A1F800
:100B30006A000320A1F870000846B0F86600322869
:100B400049DB002240F22551504802F096FA42E07B
:100B500040F226614D4802F075FB50B34C48B0F8A6
:100B60006C00401C4A49A1F86C000020A1F8680004
:100B70000120A1F870000846B0F86C00498E884248
:100B80000EDB002240F22661404802F076FA022095
:100B90003F49A1F870000020A1F86C0048861AE0D7
:100BA0003B48B0F86C003A4A115C384802F0C6FA8B
:100BB00011E03648008830490870344802F0C2FA23
:100BC0002D490870314802F0BDFA2B4908701F21E9
:100BD0002E4802F02EFB10BD10B540F225512D48D5
:100BE00002F030FB08B32B4802F0ACFAC1B22A483D
:100BF000B0F86620343081543438B0F86600401CB8
:100C00002549A1F866000020A1F86A000320A1F898
:100C100070000846B0F86600322861DB002240F21E
:100C200025511C4802F029FA5AE040F22661194881
:100C300002F008FBD8B11848B0F86C00401C164907
:100C4000A1F86C000020A1F868000120A1F8700054
:100C50000846B0F86C00498E884226DB002240F23C
:100C600026610C4802F009FA02200B4916E025E043
:100C700000380140380000200800002000440040F7
:100C8000AA000020004800401C010020004C004049
:100C90008E0100200050004000020020A1F87000EA
:100CA0000020A1F86C0048861AE0FE48B0F86C00FD
:100CB000FC4A115CFC4802F041FA11E0FA48008855
:100CC000FA490870F84802F03DFAF8490870F64809
:100CD00002F038FAF54908701F21F34802F0A9FA2A
:100CE00010BD08B50121084601F007FA1C208DF857
:100CF000000002208DF8010000208DF80200012084
:100D00008DF80300684600F04EFB00204FF0804154
:100D1000088088800881012088810020888440F62E
:100D20000F6008850A2088854007808A40F001000E
:100D300088820846008840F00100088008BD10B590
:100D40000121880702F09DF801287DD1012180074B
:100D500002F0A0F800204FF080418884D448B0F819
:100D60007000022823D1D248B0F86800401CD04956
:100D7000A1F868000846B0F86800022817DB0520D3
:100D8000A1F870000020A1F86800A1F866002021F9
:100D9000C84802F041FA20B1C64802F0D3F9C3496D
:100DA0000870012240F22551C24802F066F9C0489D
:100DB000B0F87000032836D1BD48B0F86A00401C76
:100DC000BB49A1F86A000846B0F86A00B1F86E1095
:100DD000884228DD0020B649A1F86A000420A1F865
:100DE0007000084690F86600B34981F8330000248B
:100DF00006E0AF483430005DAF490855601CC4B20E
:100E0000AD4890F83300A042F3DC0020A849A1F8D7
:100E100066000120A84981F83200012240F22551E4
:100E2000A44802F02AF9A548B0F87000022825D19C
:100E3000A248B0F86800401CA049A1F86800084624
:100E4000B0F86800022800E07EE117DB0520A1F879
:100E500070000020A1F86800A1F8660020219848E1
:100E600002F0DAF920B1964802F06CF98F49087067
:100E7000012240F22551924802F0FFF88F48B0F865
:100E80007000032830D18D48B0F86A00401C8B49AF
:100E9000A1F86A000846B0F86A00B1F86E108842FE
:100EA00022DD00208549A1F86A000420A1F8700025
:100EB000084690F86600834981F83300002406E074
:100EC0007E483430005D7F490855601CC4B27D48BF
:100ED00090F83300A042F3DC01207A4981F8320017
:100EE00000207649A1F866007748B0F87000022823
:100EF00023D17548B0F86800401C7349A1F8680018
:100F00000846B0F86800022817DB0520A1F8700039
:100F10000020A1F86800A1F8660020216B4802F0CB
:100F20007BF920B1694802F00DF96049087001228F
:100F300040F22551654802F0A0F86348B0F870000F
:100F400003282CD16048B0F86A00401C5E49A1F823
:100F50006A000846B0F86A00B1F86E1088421EDDDB
:100F600000205949A1F86A000420A1F87000084641
:100F700090F86600564981F83300002406E0524894
:100F80003430005D52490855601CC4B2504890F896
:100F90003300A042F3DC01204D4981F832004D4876
:100FA000B0F87000022823D14A48B0F86800401C0D
:100FB0004849A1F868000846B0F86800022817DB25
:100FC0000520A1F870000020A1F86800A1F86600D3
:100FD0002021414802F020F920B13F4802F0B2F848
:100FE00032490870012240F225513B4802F045F891
:100FF0003848B0F8700003282CD13648B0F86A00A1
:10100000401C3449A1F86A000846B0F86A00B1F8FB
:101010006E1088421EDD00202E49A1F86A000420CF
:10102000A1F87000084690F866002C4981F833005A
:10103000002406E027483430005D28490855601C2C
:10104000C4B2264890F83300A042F3DC01202349C3
:1010500081F832001348B0F87000022842D11148DC
:10106000B0F86800401C0F49A1F868000846B0F8C5
:101070006800022836DB0520A1F870000020A1F8E6
:101080006800A1F866002021074802F0C5F820B1E9
:10109000054802F057F805490870012240F2255131
:1010A00001481DE000020020005000400800002020
:1010B000380000200038014072020020AA00002001
:1010C00000440040A60200201C010020004800400F
:1010D000DA0200208E010020004C00400E030020A8
:1010E00001F0CBFF1948B0F8700003282CD1174845
:1010F000B0F86A00401C1549A1F86A000846B0F82B
:101100006A00B1F86E1088421EDD00200F49A1F878
:101110006A000420A1F87000084690F866000C49A7
:1011200081F83300002406E008483430005D0849A7
:101130000855601CC4B2064890F83300A042F3DCA6
:101140000120034981F8320010BD00000002002098
:1011500042030020704770471848008820F00100C3
:10116000401C164908807047154800880A30144909
:10117000088008460088642807DC1048008820F0B2
:101180000200801C0D4908800DE00D480088C82829
:1011900006DA0A48008820F002000849088002E0C8
:1011A000002007490880704710B5FFF7D5FFFFF70B
:1011B000DBFF0248FFF7F6F810BD00000A00002030
:1011C0000C00002010B571497148FFF7B1FA10BD4D
:1011D00030B502460B464FF6FF7010E012F8014B97
:1011E0006040002109E000F0010424B14AF201044A
:1011F00084EA500000E04008491C0829F3D31C0091
:10120000A3F10105ABB2E9D130BD2DE9FF4F044692
:101210000F4615469846002003908146834602906B
:10122000019082460090082F01DC042F03DA002091
:1012300004B0BDE8F08F2078012801D0072000908D
:1012400094F80190E078A17800EB012080B203903F
:101250006079217900EB01201FFA80FBB81E215C28
:10126000781E205C01EB002080B20190B81E81B294
:101270002046FFF7ADFF1FFA80FA0198504501D0D4
:1012800001200090B9F1030F04D1BBF1010F01D08F
:1012900004200090002603E00020A855701C86B2B0
:1012A000082EF9DB0398012809D1B9F1030F03D106
:1012B0004FF6FF70029001E00220009002E0032050
:1012C000009000BF00BF009808BBB9F1060F0AD11B
:1012D000002603E0A05DA855701C86B2082EF9DB3D
:1012E000A8F800701CE0B9F1030F19D1207828701C
:1012F000607868704FEA4B60000EA8700298000A90
:10130000E870029828710720A8F8000008E020780B
:101310002870607868700098A8700520A8F8000010
:10132000B8F80000801E81B22846FFF751FF1FFA6F
:1013300080FAB8F80000801E05F800A04FEA1A21D4
:10134000B8F80000401E2954012071E700B511488B
:10135000418E0E4B32330D4AFFF757FF012801D162
:101360000D49088000BD10B50A490948FFF7B7F9D3
:10137000012801D1FFF7EAFF0748008820B10020CB
:1013800005490880FFF71EFF10BD0000DE030020A6
:1013900000380140760300200E000020314901434F
:1013A000314A1160704770B5002100230F22C478C4
:1013B00004B32D4C246804F4E064C4F5E064210A0D
:1013C000C1F10403CA40447804FA03F1847814405C
:1013D00021430901254C0678A155047804F01F0526
:1013E0000124AC4005786D11AD0005F1E025C5F88C
:1013F000004109E0047804F01F050124AC401C4DB5
:101400000678761145F8264070BD1A4A0A40024314
:10141000154B1B1F1A60704739B1134A121D126811
:101420000243114B1B1D1A6006E00F4A121D126881
:1014300082430D4B1B1D1A607047042808D14FF0E2
:10144000E021096941F004014FF0E022116107E059
:101450004FF0E021096921F004014FF0E022116111
:10146000704700000000FA050CED00E000E400E029
:1014700080E100E080FFFF1F01460020FE4A106867
:1014800000F03800084310607047FB49096821F0FC
:101490000801F94A1160114609680143116070475B
:1014A000F549096821F01001F34A116011460968F5
:1014B000014311607047F148EF494860F0484860C7
:1014C0007047EE48EC494860ED4848607047EA488C
:1014D000006940F08000E84908617047E64800690B
:1014E00040F08000E449086170470420E249C9687F
:1014F00001F0010109B101200EE0DF49C96801F0E6
:10150000040109B1022007E0DB49C96801F01001BC
:1015100009B1032000E00420704700B5024604230F
:10152000FFF7E3FF034603E0FFF7DFFF0346521E2A
:10153000012B01D1002AF7D102B90523184600BDBD
:1015400030B5054604244FF43020FFF7E6FF04468B
:10155000042C19D1C848006940F00200C64908614E
:1015600008464561006940F0400008614FF43020B2
:10157000FFF7D3FF0446052C06D0BF48006941F6AB
:10158000FD710840BC490861204630BD10B50424F7
:101590004FF43020FFF7C1FF0446042C18D1B648A1
:1015A000006940F00400B44908610846006940F051
:1015B000400008614FF43020FFF7AFFF0446052CD0
:1015C00006D0AD48006941F6FB710840AA490861A0
:1015D000204610BD00B502460423FFF786FF0346F0
:1015E00003E0FFF782FF0346521E012B01D1002AC0
:1015F000F7D102B90523184600BD10B504244FF4F5
:101600003020FFF7E7FF0446042C18D19A48006900
:1016100040F00400984908610846006940F0400025
:1016200008614FF43020FFF7D5FF0446052C06D0A3
:101630009148006941F6FB7108408F4908612046D6
:1016400010BD00208C49C96901F0020109B10120D7
:1016500000E00020704730B5A5250424FFF7F1FF16
:1016600000B100254FF43020FFF757FF0446042C4B
:101670003AD182488049886081488860084600697C
:1016800040F0200008610846006940F04000086111
:101690004FF43020FFF741FF0446042C1BD176485D
:1016A000006941F6DF710840734908610846006926
:1016B00040F01000086173480580E002FFF72DFF3D
:1016C0000446052C10D06C48006941F6EF710840C3
:1016D0006949086108E0052C06D06748006941F6B1
:1016E000EF71084064490861204630BD78B5064670
:1016F0000D46042400200090E002FFF70EFF044690
:10170000042C28D15C48006940F001005A49086166
:101710003580E002FFF701FF0446042C12D1B01C13
:101720000090280C00990880E002FFF7F6FE0446BE
:10173000052C10D05048006941F6FE7108404E4912
:10174000086108E0052C06D04B48006941F6FE719F
:10175000084049490861204678BD70B505460E46E7
:101760000424E002FFF7D9FE0446042C13D14248BA
:10177000006940F00100404908612E80E002FFF757
:10178000CCFE0446052C06D03B48006941F6FE71AC
:10179000084039490861204670BD70B505460E46BF
:1017A0000424E002FFF7B9FE0446042C17D13348A5
:1017B00031498860324888600846006940F010006E
:1017C00008612E80E002FFF7A8FE0446052C06D033
:1017D0002948006941F6EF71084027490861204611
:1017E00070BD2DE9F04304464FF6FF763746B0460C
:1017F000B1460425E443E6B2C4F30727C4F307481F
:101800004FEA1469E802FFF788FE0546042D4AD125
:101810001A48194988601A4888600846006940F0EB
:1018200010000861FF2E06D0164808300680E80236
:10183000FFF773FE0546042D08D1FF2F06D011488F
:101840000A300780E802FFF768FE0546042D0AD13A
:10185000B8F1FF0F07D00B480C30A0F80080E80269
:10186000FFF75BFE0546042D14D1B9F1FF0F11D02F
:1018700004480E3008E000000020024023016745C4
:10188000AB89EFCD00F8FF1FA0F80090E802FFF74A
:1018900044FE0546052D06D06848006941F6EF7103
:1018A0000840664908612846BDE8F08330B5054622
:1018B00004244FF43020FFF730FE0446042C41D1BD
:1018C0005F485E4988605F4888600846006940F06C
:1018D000200008610846006940F0400008614FF4AC
:1018E0003020FFF71AFE0446042C22D15348006929
:1018F00041F6DF710840514908610846006940F02F
:10190000100008611DB100204F49088002E0A520A9
:101910004D4908804FF43020FFF7FFFD0446052CA9
:1019200010D04648006941F6EF710840434908610C
:1019300008E0052C06D04148006941F6DF710840F7
:101940003E490861204630BDF0B505460E461746B3
:1019500004243B48394988603A488860E002FFF730
:10196000DCFD0446042C19D13448006940F0100015
:101970003249086147F0F800304328433249891C56
:101980000880E002FFF7C9FD0446052C06D02B486D
:10199000006941F6EF710840284908612046F0BD12
:1019A0002648C069800870472448006A70470020B4
:1019B0002249096801F0200109B1012000E000205E
:1019C000704729B11D4A126902431C4B1A6104E099
:1019D0001A4A12698243194B1A6170470146002066
:1019E000012908D1154AD26902F001020AB1012089
:1019F00008E0002006E0114AD2680A400AB101203E
:101A000000E0002070470D49C860704704200B4972
:101A1000C96801F0010109B101200EE00749C96858
:101A200001F0040109B1022007E00449C96801F08E
:101A3000100109B1032000E004207047002002409B
:101A400023016745AB89EFCD00F8FF1F10B50446B1
:101A5000CC48844208D10121042000F05BFB002126
:101A6000042000F057FB46E0C748844208D101211A
:101A7000082000F04FFB0021082000F04BFB3AE06B
:101A8000C248844208D10121102000F043FB00210C
:101A9000102000F03FFB2EE0BD48844208D1012118
:101AA000202000F037FB0021202000F033FB22E053
:101AB000B848844208D10121402000F02BFB0021CE
:101AC000402000F027FB16E0B348844208D10121F2
:101AD000802000F01FFB0021802000F01BFB0AE0AB
:101AE000AE48844207D10121801500F013FB00218C
:101AF000A01500F00FFB10BD10B50121084600F045
:101B000009FB0021012000F005FB10BD2DE9F0418B
:101B1000024600250026002000230024002791F81B
:101B200003C00CF00F0591F803C00CF0100CBCF1D1
:101B3000000F03D091F802C04CEA050591F800C0EF
:101B4000BCF1000F31D0146800202BE04FF0010CE5
:101B50000CFA00F3B1F800C00CEA03069E4220D153
:101B600083004FF00F0C0CFA03F7BC4305FA03FC9B
:101B70004CEA040491F803C0BCF1280F06D14FF0E1
:101B8000010C0CFA00FCC2F814C00AE091F803C082
:101B9000BCF1480F05D14FF0010C0CFA00FCC2F863
:101BA00010C0401C0828D1D31460B1F800C0BCF1AB
:101BB000FF0F34DD546800202EE000F1080C4FF0D8
:101BC000010808FA0CF3B1F800C00CEA03069E42C3
:101BD00021D183004FF00F0C0CFA03F7BC4305FA38
:101BE00003FC4CEA040491F803C0BCF1280F05D1B2
:101BF00000F1080C08FA0CF8C2F8148091F803C040
:101C0000BCF1480F07D100F1080C4FF0010808FAA9
:101C10000CF8C2F81080401C0828CED35460BDE8F0
:101C2000F0814FF6FF710180022181700421C170A3
:101C300070470246002093680B400BB1012000E082
:101C4000002070470146886880B270470246002035
:101C5000D3680B400BB1012000E000207047014623
:101C6000C86880B2704701617047416170470AB12E
:101C7000016100E041617047C16070474FF48032FC
:101C80000A4382618161826182698269704702468A
:101C90000020434B18684FF68073184040EA02104A
:101CA00008433F4B186070473E49C8617047F0B524
:101CB0000A46002300240021002500F00046B6F16A
:101CC000004F02D1364EF16901E0354E7168C0F324
:101CD000034583B200F44016B6F5401F08D121F049
:101CE00070612F4E766826F070662D4F7E6012E090
:101CF00000F48016B6F5801F06D1032606FA05F417
:101D0000A14341F0706106E0460D360103FA06F684
:101D1000B14341F0706122B1460D360103FA06F677
:101D2000314300F00046B6F1004F02D11C4EF16184
:101D300001E01B4E7160F0BD30B500228B071C0F17
:101D40000F2303FA04F2164B08338C1053F8243097
:101D50009343134C08348D1044F8253023468C10DF
:101D600053F824308C07240F00FA04F423430C4C5E
:101D700008348D1044F8253030BD0A49DC31086044
:101D80007047000000080140000C014000100140B5
:101D90000014014000180140001C014000200140D7
:101DA0000000014000002042704700BFFEE700BF76
:101DB000FEE700BFFEE700BFFEE7704770477047D1
:101DC000704700000E49086070470D494860704731
:101DD0000B49886070474AF6AA2009490860704795
:101DE0004CF6CC4006490860704701460020044A82
:101DF000D2680A400AB1012000E0002070470000CC
:101E000000300040DF48006840F00100DD49086014
:101E100008464068DC490840DA49486008460068DE
:101E2000DA490840D74908600846006820F4802055
:101E300008600846406820F4FE0048604FF41F0028
:101E400088607047CF49096821F48031CD4A11601C
:101E50001146096821F480211160B0F5803F03D05C
:101E6000B0F5802F0ED106E0C649096841F48031F3
:101E7000C44A116007E0C349096841F4A021C14A7E
:101E8000116000E000BF00BF704710B5014600229E
:101E9000002300204A11012A02D1BA4C236806E02F
:101EA000022A02D1B74C236A01E0B64C636A01F002
:101EB0001F02012494401C400CB1012000E00020CE
:101EC00010BD38B5002000900024002500BF31204F
:101ED000FFF7DBFF05460098401C00900098B0F526
:101EE000A06F01D0002DF2D03120FFF7CEFF08B156
:101EF000012400E00024204638BD01460020A14A0C
:101F0000106820F0F80040EAC10010607047A04956
:101F100008607047024600209A4B586820F47C10F5
:101F200042EA01031843974B586070479849086686
:101F3000704701460020934A506820F00300084390
:101F4000506070478F48406800F00C0070470146B1
:101F500000208C4A506820F0F00008435060704721
:101F600001460020874A506820F4E0600843506032
:101F7000704701460020834A506820F4605040EAD0
:101F8000C1005060704729B17E4A527A02437D4BAE
:101F90005A7204E07B4A527A82437A4B5A727047F3
:101FA0007B49D8310860704701460020754A506867
:101FB00020F440400843506070470021714A2032AD
:101FC0001170704A82F82010012802D004280AD12A
:101FD00004E001216B4A2032117005E00521694AB5
:101FE0002032117000E000BF00BF704769490860EF
:101FF00070476449096A0143624A11627047654942
:1020000044390860704730B50021002200240023C5
:102010005C4D6D6805F00C0121B1042905D008293B
:1020200023D105E05C4D056022E05B4D05601FE0BB
:10203000544D6D6805F47012524D6D6805F480348E
:10204000022505EB92421CB9544D554305600BE047
:102050004C4D6D6805F400351DB1504D554305607C
:1020600002E04D4D5543056002E04B4D056000BF59
:1020700000BF444D6D6805F0F0010909484D6B5CE7
:102080000568DD4045603F4D6D6805F4E061090A73
:10209000434D6B5C4568DD4085603A4D6D6805F4E5
:1020A0006051C90A3E4D6B5C4568DD40C560354DE9
:1020B0006D6805F44041890B3A4D6B5CC568B5FB12
:1020C000F3F5056130BD29B12E4A526902432D4B0B
:1020D0005A6104E02B4A526982432A4B5A61704785
:1020E00029B1284A92690243264B9A6104E0254AA5
:1020F00092698243234B9A61704729B1214AD26980
:102100000243204BDA6104E01E4AD26982431D4B30
:10211000DA61704729B11B4AD2680243194BDA6071
:1021200004E0184AD2688243164BDA60704729B13E
:10213000144A12690243134B1A6104E0114A1269EE
:102140008243104B1A61704712494039086070474A
:102150000F49C86470470B49C87170470948406A05
:1021600040F0807007494862704701460020054AE8
:1021700092680A400AB1012000E00020704701493E
:1021800088727047001002400000FFF8FFFFF6FE63
:10219000000042428004424200127A0000093D00E1
:1021A000100000202000002010B50446FE488442A4
:1021B00008D10121C014FFF7ADFF0021E014FFF7A3
:1021C000A9FFC4E0B4F1804F08D101210846FFF710
:1021D000AEFF00210120FFF7AAFFB8E0F3488442D8
:1021E00008D101210220FFF7A2FF00210220FFF702
:1021F0009EFFACE0EE48844208D101210420FFF7A5
:1022000096FF00210420FFF792FFA0E0E9488442F6
:1022100008D101210820FFF78AFF00210820FFF7DD
:1022200086FF94E0E448844208D101211020FFF7A2
:102230007EFF00211020FFF77AFF88E0DF4884420C
:1022400008D101212020FFF772FF00212020FFF795
:102250006EFF7CE0DA48844208D101214014FFF788
:1022600059FF00216014FFF755FF70E0D548844204
:1022700009D10121C804FFF74DFF00214FF40020D0
:10228000FFF748FF63E0D048844209D101210805E7
:10229000FFF740FF00214FF48010FFF73BFF56E0AF
:1022A000CA48844209D101214805FFF733FF0021C4
:1022B0004FF40010FFF72EFF49E0C548844208D1D3
:1022C00001214020FFF733FF00214020FFF72FFFBF
:1022D0003DE0C048844208D101218020FFF727FF5C
:1022E00000218020FFF723FF31E0BB48844208D162
:1022F00001218015FFF71BFF0021A015FFF717FF35
:1023000025E0B648844209D101210804FFF702FF05
:1023100000214FF48030FFF7FDFE18E0B048844202
:1023200009D101214804FFF7F5FE00214FF40030E8
:10233000FFF7F0FE0BE0AB48844208D1012188048E
:10234000FFF7E8FE00214FF48020FFF7E3FE10BD09
:1023500000220288944B98420ED0994B98420BD0A1
:10236000B0F1804F08D0914B984205D0904B9842E5
:1023700002D0904B984204D14FF68F731A404B888D
:102380001A438D4B984207D08C4B984204D04FF69D
:10239000FF431A40CB881A4302808B8883850B88C1
:1023A0000385814B98420BD0854B984208D08B4BCC
:1023B000984205D08A4B984202D08A4B984201D16C
:1023C0000B7A038601238382704770B500240022B4
:1023D0000023058C4FF6FE7635400584028C8388F9
:1023E000048B4FF68F752C40B51E2C400D882C4366
:1023F000751E2A400D892A434D882A436A4DA842FA
:102400000BD06F4DA84208D0744DA84205D0744D32
:10241000A84202D0734DA84213D14FF6F7752A4057
:102420004D892A434FF6FB752A408D882A434FF683
:10243000FF652B404FF6FF552B408D892B43CD89EF
:102440002B4383800483CD888586028470BD70B55C
:10245000002400220023058C4FF6EF7635400584DA
:10246000028C8388048B48F6FF752C404FF6FF459D
:102470002C400D884FF6FF7606EA05252C434FF6D3
:10248000DF752A400D8906EA05152A434D8806EABC
:1024900005152A43444DA84202D0494DA8421DD1FA
:1024A0004FF67F752A404D894FF6FF7606EA0515EF
:1024B0002A434FF6BF752A408D8806EA05152A4340
:1024C0004FF6FF352B404FF2FF752B408D8906EA02
:1024D00085052B43CD8906EA85052B43838004833C
:1024E000CD880587028470BD70B5002400220023CA
:1024F000058C4FF6FF6635400584028C8388848BFB
:102500004FF68F752C404FF6FC752C400D882C43F0
:102510004FF6FF552A400D894FF6FF7606EA05254E
:102520002A434D8806EA05252A431F4DA84202D0BA
:10253000234DA8421DD14FF2FF752A404D894FF619
:10254000FF7606EA05252A434FF6FF352A408D8897
:1025500006EA05252A434EF6FF752B404DF6FF751A
:102560002B408D8906EA05152B43CD8906EA051512
:102570002B4383808483CD888587028470BD70B5AA
:10258000002200230024058C4EF6FF76354005849A
:10259000038C8488828B48F6FF752A404FF6FF45EE
:1025A0002A400D8820E00000002C0140000400407B
:1025B00000080040000C00400010004000140040E3
:1025C00000340140004C01400050014000540140E3
:1025D00000180040001C0040002000400040014066
:1025E00000440140004801404FF6FF7606EA052509
:1025F0002A434DF6FF752B400D8906EA05352B431E
:102600004D8806EA05352B43FB4DA84202D0FB4D11
:10261000A84208D14BF6FF752C408D894FF6FF7606
:1026200006EA85152C4384808283CD88A0F840502B
:10263000038470BD828B4FF2FF331A408283828BFA
:102640004FF6FF7303EA01231A4382837047F0B504
:102650000C461546002100220026078C4EF6FF7C12
:1026600007EA0C070784818B028C4FF6FF7707EA95
:10267000043640F6FF4739404FF6FF7707EA052753
:1026800039434FF6FF7707EA033739434DF6FF77B3
:102690003A4046F480573A4381830284F0BD828BEE
:1026A0004FF6F3731A408283828B0A43828370470A
:1026B000F0B50C461546002100220026078C4FF687
:1026C000FF6C07EA0C070784818B028C4FF6FF77BB
:1026D00007EA04264FF60C7739404FF6FF7707EAF2
:1026E00003172F4339434FF6FF573A4046F480779C
:1026F0003A4381830284F0BD028B4FF2FF331A40CC
:102700000283028B4FF6FF7303EA01231A4302830D
:102710007047F0B50C461546002100220026078CB4
:102720004FF6EF7C07EA0C070784018B028C4FF60B
:10273000FF7707EA041640F6FF4739404FF6FF7768
:1027400007EA033739434FF6FF7707EA052739438E
:102750004FF6DF773A4046F010073A430183028490
:10276000F0BD028B4FF6F3731A400283028B0A43CB
:1027700002837047F0B50C46154600210022068CF6
:102780004FF6FE773E400684018B028C4FF60C76A6
:1027900031407E1C06EA03162E4331437E1E324032
:1027A00044F00106324301830284F0BD70B5054652
:1027B0000C46208850B92389A28861882846FFF7F3
:1027C000D9FFE1882846FFF7CCFF25E020880428C0
:1027D0000AD12389A28861882846FFF79AFFE188F9
:1027E0002846FFF789FF17E0208808280AD12389A7
:1027F000A28861882846FFF75BFFE1882846FFF73B
:102800004EFF09E02389A28861882846FFF71FFF51
:10281000E1882846FFF70EFF70BD2DE9F04105461F
:102820000C4600260127608808B9022600E0002631
:10283000A088012801D1022700E001272088A0B943
:102840002389A28861882846FFF794FFE1882846FB
:10285000FFF787FF23893A4631462846FFF759FF9D
:10286000E1882846FFF748FF13E02389A2886188A2
:102870002846FFF74EFFE1882846FFF73DFF2389F2
:102880003A4631462846FFF775FFE1882846FFF7AC
:1028900068FFBDE8F0810A884B881A438B881A4389
:1028A000CB881A430B891A434B891A438B891A43E5
:1028B000A0F8442070474FF6FF718180002101800D
:1028C000C180418001727047002101804180818078
:1028D000C180018141818181C181704700210180D6
:1028E0004180012181800021C18001817047002148
:1028F000018041808180C180018141818181704757
:1029000021B1028842F00102028004E002884FF601
:10291000FE731A400280704731B1B0F8442042F48F
:102920000042A0F8442005E0B0F84420C2F30E02B3
:10293000A0F8442070471AB183890B43838102E0D9
:1029400083898B43838170478182704741EA020308
:10295000A0F8483070471AB183890B43838102E0A5
:1029600083898B438381704701894FF6F872114048
:10297000018170470A46002101894FF68F73194083
:1029800011430181704730B504460D462946204663
:10299000FFF7F0FF208940F00700208130BD2DE9CE
:1029A000F04104460D4616461F46602D06D13B46B3
:1029B000012231462046FFF7ACFE05E03B460122EE
:1029C00031462046FFF7D6FE29462046FFF7D2FFC4
:1029D000208940F007002081BDE8F08130B50C4629
:1029E00000210189C9B24FF6FF7505EA0325154399
:1029F00025432943018130BD002C014000340140B2
:102A00002DE9F04105460E461746984600244346F8
:102A10003A4631462846FFF7E1FF2C894FF6F87019
:102A2000044044F007044FF68F70044044F07004F3
:102A30002C81BDE8F081F0B504460D4616461F46D0
:102A40003B46324629462046FFF7C8FF208940F41E
:102A500080402081F0BD0185828270470A460021B6
:102A600001884FF68F731940114301807047F0B50C
:102A70000C4615461E460021002200230189028BC8
:102A8000038C4FF6F877394021434FF6FC473A4024
:102A900040F201173A434FF6DD773B404FF6FF77A0
:102AA00007EA06172F433B43018102830384F0BDED
:102AB0000A460021018B4FF68F73194011430183A1
:102AC00070470A460021018B48F6FF7319404FF604
:102AD000FF7303EA02231943018370470A4600216A
:102AE000818B4FF68F7319401143818370470A46DB
:102AF0000021818B48F6FF7319404FF6FF7303EAFC
:102B0000022319438183704721B1028842F0800279
:102B1000028004E002884FF67F731A4002807047FB
:102B200021B1828842F00402828004E082884FF65C
:102B3000FB731A408280704721B1828842F00802FC
:102B4000828004E082884FF6F7731A4082807047D3
:102B500021B1828842F00102828004E082884FF62F
:102B6000FE731A40828070470A460021018B4FF69F
:102B7000F77319401143018370470A460021018B06
:102B80004FF2FF7319404FF6FF7303EA0223194314
:102B9000018370470A460021818B4FF6F773194075
:102BA0001143818370470A460021818B4FF2FF73E6
:102BB00019404FF6FF7303EA0223194381837047DC
:102BC0000A460021018B4FF6FB7319401143018324
:102BD00070470A460021018B4FF6FF3319404FF62C
:102BE000FF7303EA02231943018370470A46002159
:102BF000818B4FF6FB7319401143818370470A465E
:102C00000021818B4FF6FF3319404FF6FF7303EA23
:102C100002231943818370470A460021018B4FF636
:102C20007F7319401143018370470A460021018BCD
:102C3000C1F30E014FF6FF7303EA02231943018328
:102C400070470A460021818B4FF67F73194011436C
:102C5000818370470A460021818BC1F30E014FF634
:102C6000FF7303EA02231943818370470A46002158
:102C7000018C4FF6FD7319401143018470470A46D9
:102C80000021018C4FF6F7731940114301847047FE
:102C90000A460021018C4FF6DF7319404FF6FF738F
:102CA00003EA02131943018470470A460021018C8C
:102CB0004FF67F7319404FF6FF7303EA021319436F
:102CC000018470470A460021018C4FF6FF531940DA
:102CD0004FF6FF7303EA02231943018470470A4643
:102CE0000021018C4FF2FF7319404FF6FF7303EA86
:102CF00002231943018470470A460021018C4DF6D6
:102D0000FF7319404FF6FF7303EA0233194301843E
:102D1000704730B5002301248C40A3B2048C9C433F
:102D20000484048C02FA01F5ADB22C43048430BD56
:102D300030B5002304248C40A3B2048C9C4304844B
:102D4000048C02FA01F5ADB22C43048430BD70B599
:102D50000346002000241846183001258D40ACB2EF
:102D60001D8CA5431D8409B1082909D100EB610020
:102D7000056825F0700505600568154305600EE0DF
:102D80000D1FC5F34E052844056825F4E045056090
:102D900005684FF6FF7606EA02263543056070BDEA
:102DA00021B1028842F00202028004E002884FF65C
:102DB000FD731A400280704721B1028842F004027C
:102DC000028004E002884FF6FB731A4002807047CD
:102DD00021B1828842F08002828004E082884FF62E
:102DE0007F731A408280704702884FF6F7731A404B
:102DF000028002880A430280704782884FF68F73F0
:102E00001A40828082880A438280704702894FF686
:102E1000F8731A40028102890A43028170470289CD
:102E20004FF67F731A40028102890A43028170477C
:102E3000818470478185704781867047018770471C
:102E400081877047A0F84010704702884FF6FF4313
:102E50001A40028002880A43028070470146888E29
:102E600070470146088F70470146888F70470146BA
:102E7000B1F8400070470146888C70470146088DC4
:102E8000704702460020138A0B400BB1012000E07E
:102E900000207047CA430282704730B502460020C6
:102EA00000230024158A05EA0103958905EA010437
:102EB00013B10CB1012000E0002030BDCA430282F2
:102EC0007047000010B50446FB48844209D1012137
:102ED0008803FFF71FF900214FF48040FFF71AF92C
:102EE00032E0F648844209D101214804FFF71FF976
:102EF00000214FF40030FFF71AF925E0F048844232
:102F000009D101218804FFF712F900214FF4802034
:102F1000FFF70DF918E0EB48844209D10121C804FC
:102F2000FFF705F900214FF40020FFF700F90BE04F
:102F3000E548844208D101210805FFF7F8F800218F
:102F40004FF48010FFF7F3F810BD2DE9F04786B07D
:102F500005460E460024A24600BFA1460027B089C0
:102F600000B100BF2F462C8A4CF6FF700440F08859
:102F700004432C82AC894EF6F3100440B0883189AA
:102F80000843718908430443AC81AC8A4FF6FF4083
:102F90000440B0890443AC8201A8FFF734F8C64866
:102FA000874202D1DDF810A001E0DDF80CA0A8896D
:102FB00000F4004040B10AEBCA0000EB0A1031688F
:102FC0004900B0FBF1F807E00AEBCA0000EB0A1079
:102FD00031688900B0FBF1F86420B8FBF0F004011F
:102FE0002009642101FB1089A88900F4004040B148
:102FF000322000EBC900B0FBF1F000F00700044301
:1030000008E0322000EB09106421B0FBF1F000F081
:103010000F0004432C8106B0BDE8F0874FF4165131
:10302000016000218180C18001810C21418100214A
:103030008181704710B502460020108A4FF2FF03CD
:1030400018400B884C8823438C882343CC88234327
:103050001843108210BD0021018041808180C18011
:10306000704721B1828942F40052828104E0828952
:103070004DF6FF731A4082817047F0B50346002475
:1030800000260025002040F66A17B94200D100BF93
:103090001846C1F3421401F01F06012707FA06F58E
:1030A000012C01D10C3004E0022C01D1103000E0E1
:1030B00014301AB107682F43076002E00768AF4376
:1030C0000760F0BD1AB1838A0B43838202E0838AD2
:1030D0008B4383827047028A4FF6F0731A40028254
:1030E000028A0A430282704782894FF2FF731A40B4
:1030F000828182890A438281704721B1828942F0AC
:103100000202828104E082894FF6FD731A408281B7
:103110007047028A4FF6DF731A400282028A0A431E
:103120000282704721B1028A42F48042028204E0A6
:10313000028A4BF6FF731A4002827047C1F30802FD
:103140008280704701468888C0F3080070478189F3
:1031500041F0010181817047028BD2B20283028B60
:1031600042EA012202837047028B02F47F4202830B
:10317000028B0A430283704721B1828A42F0200207
:10318000828204E0828A4FF6DF731A40828270479F
:1031900021B1828A42F01002828204E0828A4FF6D4
:1031A000EF731A408282704721B1828A42F008028E
:1031B000828204E0828A4FF6F7731A408282704757
:1031C00021B1828942F40042828103E08289C2F304
:1031D0000E028281704721B1828A42F400628282AB
:1031E00004E0828A4FF2FF731A4082827047828A1B
:1031F0004FF6FB731A408282828A0A4382827047AA
:1032000021B1828A42F00202828204E0828A4FF671
:10321000FD731A408282704702460020B1F5007F9C
:1032200000D100BF13880B400BB1012000E000204B
:10323000704701F40072B2F5007F00D100BFCA43AD
:103240000280704770B5024600240023002500204C
:1032500040F66A16B14200D100BFC1F3421501F039
:103260001F03012606FA03F3012D02D1968933408C
:1032700006E0022D02D1168A334001E0968A3340DF
:103280000C12012606FA04F41688344013B10CB16E
:10329000012000E0002070BD10B50022002340F6A0
:1032A0006A14A14200D100BF0A1201249440A3B2C3
:1032B000DC43048010BD00000038014000440040A1
:1032C00000480040004C0040005000400CB5002079
:1032D000019000906A48006840F4803068490860B6
:1032E00000BF6748006800F4003000900198401C5F
:1032F0000190009818B90198B0F5A06FF1D160481D
:10330000006800F4003010B10120009001E00020BE
:1033100000900098012843D15A48006840F01000FE
:10332000584908600846006820F003000860084615
:10333000006840F002000860514840685049486009
:103340000846406848600846406840F4806048602D
:103350000846406820F47C1048600846406840F405
:10336000E81048600846006840F08070086000BFC0
:103370004348006800F000700028F9D040484068D9
:1033800020F003003E4948600846406840F00200D3
:10339000486000BF3A48406800F00C000828F9D1A6
:1033A0000CBD10B5FFF792FF10BD10B53448006892
:1033B00040F0010032490860084640683249084040
:1033C0002F49486008460068304908402C49086089
:1033D0000846006820F4802008600846406820F411
:1033E000FE0048604FF41F008860FFF7DAFF10BD51
:1033F00010B5002100200022214B5B6803F00C0176
:1034000021B1042906D0082928D107E0204B214CFE
:10341000236027E01E4B1F4C236023E0184B5B68A2
:1034200003F47010164B5B6803F48032022303EB45
:10343000904022B9184B4343164C23600DE0104BCB
:103440005B6803F4003323B1134B4343114C2360F7
:1034500003E00F4B43430F4C236003E00C4B0D4C38
:10346000236000BF00BF064B5B68C3F303130B4C24
:10347000E15C084B1B68CB40064C236010BD00008C
:1034800000100240002002400000FFF8FFFFF6FE9F
:1034900000127A002400002000093D0028000020CE
:1034A000064C074D06E0E06840F0010394E8070091
:1034B00098471034AC42F6D3FCF73EFEE4340008E3
:1034C0000435000802E008C8121F08C1002AFAD11A
:1034D00070477047002001E001C1121F002AFBD194
:1034E000704700000435000800000020380000008C
:1034F000C43400083C3500083800002010080000E3
:10350000D4340008000000000000000000000000AB
:103510000000000000000000010203040102030497
:10352000060708090204060800A24A040000000079
:0C35300000000000010203040607080967
:0400000508000131BD
:00000001FF
