:020000040800F2
:10000000480F002045010008D5380008D7380008FF
:10001000DB380008DF380008E33800080000000083
:10002000000000000000000000000000E7380008A9
:10003000E938000800000000EB380008ED3800083F
:100040005F0100085F0100085F0100085F01000810
:100050005F0100085F0100085F0100085F01000800
:100060005F0100085F0100085F0100085F010008F0
:100070005F0100085F0100085F0100085F010008E0
:100080005F0100085F0100085F0100085F010008D0
:100090005F0100085F0100085F0100085F010008C0
:1000A0005F0100085F0100085F0100085F010008B0
:1000B0003B1000085F0100085F0100085F010008B5
:1000C0005F0100085F0100085F0100085F01000890
:1000D0005F0100086D0B0008470C0008210D0008A7
:1000E0005F0100085F0100085F0100085F01000870
:1000F0005F0100085F0100085F0100085F01000860
:100100005F0100085F0100085F0100085F0100084F
:10011000FB0D0008D50E00085F0100085F01000814
:100120005F0100085F0100085F0100085F0100082F
:10013000DFF80CD004F086FF004800476901000892
:10014000480F00200648804706480047FEE7FEE7C4
:10015000FEE7FEE7FEE7FEE7FEE7FEE7FEE7FEE777
:10016000D74E00083101000800F09EF86FF07F4183
:10017000B1F1807F01D301201DE021F07F40401EBE
:100180004FF0E022506150170F22002807DA1307C2
:100190001D0E404B00F00F04241F1D5503E01307F4
:1001A0001C0E3D4B1C5400BF00204FF0E02290611C
:1001B00007201061002008B100BFFEE700F0ABF897
:1001C00000F0A6FA0020354908704FF0E020806961
:1001D00000023349086000BF4FF0E02080693049D9
:1001E0000968A1EB0020B0F5E11FF5D32C480068A9
:1001F000A0F5E1102A4908602A480088401C2949D6
:10020000088008460088052190FBF1F201FB1200EE
:1002100008B901F0B1FD234800881428DCDB002078
:100220002049088000F009FA01F0C1FB01F03EFD11
:1002300001F05DFD02F0C1F803F063FB17480078A0
:10024000052822D2DFE800F0030B11171D0001F092
:10025000B4FB12480078401C1049087019E00F48A0
:100260000078401C0D49087013E00C480078401CD1
:100270000A4908700DE009480078401C07490870D9
:1002800007E000200549087003E0002003490870DA
:1002900000BFA1E718ED00E000E400E00600002048
:1002A000000000200400002010B503F041FB4FF4D3
:1002B000803003F05DFB03F09AFB44490870084668
:1002C0000078012826D1002003F0D7FB002003F09E
:1002D000E6FB4FF4806003F0D9FB022002F06EFCD5
:1002E000102002F07FFC4FF4E0114FF4803003F057
:1002F000A7FB012003F0B0FB00BF392003F05BFB3C
:100300000028FAD0022003F0AAFB00BF03F0B0FBE4
:100310000828FBD110BD10B500F04AF900F089F9AA
:1003200000F05DFE00224FF41641294800F0E9FA82
:1003300000224FF41651274800F0E3FA00F0FBF8D2
:1003400001F007FA10BD30B501464FF0E024A46972
:10035000200201EBC104E20200BF4FF0E024A469D7
:10036000B0EB042F05D34FF0E024A469A0EB0423E5
:1003700007E04FF0E024A4696FF0FF05A5EB04242B
:1003800023189342E9D330BD10B5034600248B42B5
:100390000AD95C1A64206043B0FBF3F0904201D3A9
:1003A000012010BD0020FCE78B420AD2CC1A642049
:1003B0006043B0FBF1F0904201D30120F1E700204F
:1003C000EFE70AB90120ECE70020EAE70700002088
:1003D000003801400044004000B58BB001210846C0
:1003E00003F007FC6C4802F0C3FA6C4800906C48BC
:1003F000019000200290FA200390002004908020B9
:100400000590400006908000079020200890000290
:10041000099000200A9069465F4802F04AFB0121DA
:100420005D4802F071FB0BB000BD00B585B04FF424
:10043000004003F04FFB0121480203F0E7FB57485F
:100440004C3802F06DF80020009001208DF8040077
:100450008DF805004FF460200290002003900520E5
:100460008DF8100069464D484C3802F080F807239B
:100470000122002149484C3802F011F907230222D9
:10048000042146484C3802F00AF9072303220621CA
:1004900042484C3802F003F90723042219463F482A
:1004A0004C3802F0FCF80723052208213B484C3861
:1004B00002F0F5F8012139484C3802F08FF801219B
:1004C00036484C3802F07FF834484C3802F09DF83A
:1004D00000BF32484C3802F09DF80028F9D12F486F
:1004E0004C3802F0A1F800BF2C484C3802F0A1F8BB
:1004F0000028F9D1012129484C3802F0A4F805B0B0
:1005000000BD08B501210C2003F080FBD120ADF81F
:10051000000000208DF803006946224802F098FE92
:100520000120ADF8000000208DF8030069461E4848
:1005300002F08EFE08BD10B5FFF7E3FFFFF775FF71
:10054000FFF74AFF10BD30B5014600220023052900
:1005500001DB002030BD002209E002EB8200104CDC
:1005600004EB400030F811000344501C82B2322AE0
:10057000F3DB3220B3FBF0F00C4C24F811002046E2
:1005800030F811004FF4A57500FB05F4E01704EBFB
:1005900010500013DEE70000080002404C24014028
:1005A0003805002000080140000C01402C07002005
:1005B00008B501211D2003F029FB01214F4802F05D
:1005C00018FF4FF40060ADF8000003208DF8020022
:1005D00028208DF803006946494802F039FE4FF49F
:1005E0008060ADF8000003208DF8020010208DF827
:1005F00003006946424802F02BFE4FF48070ADF8CC
:10060000000003208DF8020010208DF803006946D9
:100610003C4802F01DFE2020ADF8000003208DF8BC
:10062000020010208DF803006946354802F010FEE4
:1006300008BD704734480068704710B50022304B41
:1006400008331B68C3F3C0231A4382F00102002061
:1006500023E0012303FA00F12B4B1B680B4002EA55
:100660000104A34214D0294B1B5C9B1C274C235430
:1006700023461B5C0A2B0EDB234B1B688B4302EAD1
:1006800001042344204C23600023204C235402E027
:1006900000231E4C2354431C98B20428D9DB10BD00
:1006A00010B50446207800F0010028B14FF48061B5
:1006B000134802F07AFE04E04FF48061104802F023
:1006C00076FE2078C0F3400028B14FF480710D48C9
:1006D00002F06DFE04E04FF480710A4802F065FEFE
:1006E0002078C0F3800020B12021054802F05FFE91
:1006F00003E02021024802F058FE10BD0002300045
:10070000000C014000080140080000200C000020FF
:1007100010B545F2555003F0EBF8032003F0EBF869
:1007200040F2E24003F0EAF803F0EBF803F0EEF8F1
:1007300010BD000038B50446FB4884420FD1252087
:100740008DF8000001208DF8010002208DF80200D4
:1007500001208DF80300684601F079FE24E0F3489B
:1007600084420FD126208DF8000001208DF8010071
:1007700003208DF8020001208DF80300684601F087
:1007800066FE11E0EA4884420ED127208DF8000071
:1007900001208DF8010004208DF8020001208DF861
:1007A0000300684601F053FE38BD38B50446DE4804
:1007B00084421ED10121042003F028FA012188037C
:1007C00003F024FA6015ADF8000018208DF803003E
:1007D00003208DF802006946D64802F039FD201545
:1007E000ADF8000004208DF803006946D14802F0FE
:1007F0002FFDCE4884421ED10121042003F006FAC9
:100800000121480403F00FFA0420ADF8000018207D
:100810008DF8030003208DF802006946C54802F0F8
:1008200017FD0820ADF8000004208DF8030069468C
:10083000C04802F00DFDBE4884421ED101210820AF
:1008400003F0E4F90121880403F0EDF92015ADF877
:10085000000018208DF8030003208DF8020069467F
:10086000B54802F0F5FCE014ADF8000004208DF866
:1008700003006946B04802F0EBFCB04884421ED148
:100880000121102003F0C2F90121C80403F0CBF9C3
:100890002015ADF8000018208DF8030003208DF816
:1008A00002006946A64802F0D3FCE014ADF800004F
:1008B00004208DF803006946A14802F0C9FCA14854
:1008C00084421DD10121302003F0A0F90121080547
:1008D00003F0A9F9A014ADF8000018208DF803006A
:1008E00003208DF802006946954802F0B1FC04200F
:1008F000ADF800008DF803006946934802F0A8FCAB
:1009000038BD7FB504460E4615460021204604F04A
:100910003EF92046FFF749FF2046FFF70BFF002076
:10092000ADF80400ADF80600ADF80800ADF80C0015
:1009300000960C20ADF80A006946204604F09BF8AA
:100940002DB9012240F22551204604F02CF9012155
:10095000204604F01CF9744884420AD10098B0F58E
:10096000964F01D9022000E005207849A1F86E00D9
:1009700036E06E4884420AD10098B0F5964F01D90E
:10098000022000E005207249A1F86E0028E06848C6
:1009900084420AD10098B0F5964F01D9022000E0B8
:1009A00005206C49A1F86E001AE0644884420AD11F
:1009B0000098B0F5964F01D9022000E00520664965
:1009C000A1F86E000CE05F48844209D10098B0F5B0
:1009D000964F01D9022000E005206049A1F86E0081
:1009E0007FBD10B502460C4600235D494E48824249
:1009F00000D108E04D48824201D15A4903E04C48F9
:100A0000824200D1584991F8320088B1002303E0B6
:100A1000C85CE054581C83B291F833009842F7DC6C
:100A200091F833006086002081F83200012010BD6B
:100A30000020FCE770B506460D463B48864220D1B3
:100A4000688E424948860020A1F86C00002404E02A
:100A5000285D3E490855601CC4B23C48408EA04207
:100A6000F6DC8021304804F06DF9384801782E48D2
:100A700004F0FAF8012240F226612B4804F093F8C2
:100A800050E02A48864225D1002240F2255104F048
:100A90008AF8688E2E4948860020A1F86C00002450
:100AA00004E0285D2A490855601CC4B22848408EDD
:100AB000A042F6DC80211D4804F044F92448017866
:100AC0001A4804F0D1F8012240F22661174804F0D8
:100AD0006AF827E01648864224D1002240F22551C8
:100AE00004F061F8688E1B4948860020A1F86C006C
:100AF000002404E0285D17490855601CC4B215485D
:100B0000408EA042F6DC8021094804F01BF9114810
:100B10000178074804F0A8F8012240F22661044851
:100B200004F041F870BD000000380140004400406E
:100B30000048004000080140000C0140004C00400B
:100B40000010014000500040001401403607002012
:100B5000A80700201A0800208C080020FE080020AA
:100B600070090020A4090020D809002010B540F227
:100B70002551FE4804F0FCF808B3FC4804F078F86E
:100B8000C1B2FB48B0F86620343081543438B0F834
:100B90006600401CF649A1F866000020A1F86A0032
:100BA0000320A1F870000846B0F86600322849DB3F
:100BB000002240F22551ED4803F0F5FF42E040F2FB
:100BC0002661EA4804F0D4F850B3E948B0F86C0064
:100BD000401CE749A1F86C000020A1F86800012042
:100BE000A1F870000846B0F86C00498E88420EDB10
:100BF000002240F22661DD4803F0D5FF0220DC49E7
:100C0000A1F870000020A1F86C0048861AE0D848CE
:100C1000B0F86C00D64A115CD44804F025F811E015
:100C2000D2480088D3490870D04804F021F8D1494F
:100C30000870CE4804F01CF8CE4908701F21CB483C
:100C400004F08DF810BD10B540F22551CA4804F0EB
:100C50008FF808B3C84804F00BF8C1B2C748B0F821
:100C60006620343081543438B0F86600401CC349E3
:100C7000A1F866000020A1F86A000320A1F8700026
:100C80000846B0F86600322849DB002240F22551C0
:100C9000B94803F088FF42E040F22661B64804F00C
:100CA00067F850B3B548B0F86C00401CB349A1F8E0
:100CB0006C000020A1F868000120A1F8700008462F
:100CC000B0F86C00498E88420EDB0220AB49A1F8D7
:100CD00070000020A1F86C004886002240F22661D6
:100CE000A54803F060FF1AE0A448B0F86C00A34ADE
:100CF000115CA14803F0B8FF11E09F4800889D49AE
:100D000008709D4803F0B4FF9A4908709A4803F0B0
:100D1000AFFF984908701F21974804F020F810BDD4
:100D200010B540F22551964804F022F808B39448D3
:100D300003F09EFFC1B29348B0F86620343081546E
:100D40003438B0F86600401C8E49A1F866000020D7
:100D5000A1F86A000320A1F870000846B0F8660008
:100D6000322849DB002240F22551854803F01BFF61
:100D700042E040F22661824803F0FAFF50B3814816
:100D8000B0F86C00401C7F49A1F86C000020A1F86D
:100D900068000120A1F870000846B0F86C00498E88
:100DA00088420EDB002240F22661754803F0FBFE0C
:100DB00002207449A1F870000020A1F86C00488658
:100DC0001AE07048B0F86C006E4A115C6C4803F091
:100DD0004BFF11E06A48008866490870684803F0D4
:100DE00047FF64490870664803F042FF6149087094
:100DF0001F21634803F0B3FF10BD10B540F2255129
:100E0000614803F0B5FF08B35F4803F031FFC1B29A
:100E10005E48B0F86620343081543438B0F866004B
:100E2000401C5A49A1F866000020A1F86A0003207E
:100E3000A1F870000846B0F86600322849DB0022AD
:100E400040F22551504803F0AEFE42E040F22661E8
:100E50004D4803F08DFF50B34C48B0F86C00401C77
:100E60004A49A1F86C000020A1F868000120A1F80F
:100E700070000846B0F86C00498E88420EDB0022F4
:100E800040F22661404803F08EFE02203F49A1F85F
:100E900070000020A1F86C0048861AE03B48B0F8CA
:100EA0006C003A4A115C384803F0DEFE11E0364827
:100EB000008830490870344803F0DAFE2D49087084
:100EC000314803F0D5FE2B4908701F212E4803F04E
:100ED00046FF10BD10B540F225512D4803F048FFE4
:100EE00008B32B4803F0C4FEC1B22A48B0F866200C
:100EF000343081543438B0F86600401C2549A1F8DC
:100F000066000020A1F86A000320A1F870000846DE
:100F1000B0F86600322861DB002240F225511C48FF
:100F200003F041FE5AE040F22661194803F020FF29
:100F3000D8B11848B0F86C00401C1649A1F86C00F4
:100F40000020A1F868000120A1F870000846B0F860
:100F50006C00498E884226DB002240F226610C4854
:100F600003F021FE02200B4916E025E00038014085
:100F7000360700201000002000440040A807002091
:100F8000004800401A080020004C00408C08002057
:100F900000500040FE080020A1F870000020A1F8D9
:100FA0006C0048861AE0FE48B0F86C00FC4A115C00
:100FB000FC4803F059FE11E0FA480088FA4908702D
:100FC000F84803F055FEF8490870F64803F050FE63
:100FD000F54908701F21F34803F0C1FE10BD08B5A4
:100FE0000121084602F01FFE1C208DF8000002209F
:100FF0008DF8010000208DF8020001208DF803001B
:10100000684601F024FA00204FF080410880888073
:101010000881012088810020888440F60F600885BF
:101020000A2088854007808A40F0010088820846AF
:10103000008840F00100088008BD10B50121880734
:1010400003F0B5FC01287DD10121800703F0B8FC35
:1010500000204FF080418884D448B0F87000022806
:1010600023D1D248B0F86800401CD049A1F86800EC
:101070000846B0F86800022817DB0520A1F87000C8
:101080000020A1F86800A1F866002021C84803F0FC
:1010900059FE20B1C64803F0EBFDC3490870012298
:1010A00040F22551C24803F07EFDC048B0F8700000
:1010B000032836D1BD48B0F86A00401CBB49A1F8EE
:1010C0006A000846B0F86A00B1F86E10884228DD60
:1010D0000020B649A1F86A000420A1F87000084673
:1010E00090F86600B34981F83300002406E0AF4869
:1010F0003430005DAF490855601CC4B2AD4890F86B
:101100003300A042F3DC0020A849A1F866000120CA
:10111000A84981F83200012240F22551A44803F089
:1011200042FDA548B0F87000022825D1A248B0F8C9
:101130006800401CA049A1F868000846B0F86800A3
:10114000022800E07EE117DB0520A1F870000020F6
:10115000A1F86800A1F866002021984803F0F2FD8C
:1011600020B1964803F084FD8F490870012240F2B7
:101170002551924803F017FD8F48B0F870000328FE
:1011800030D18D48B0F86A00401C8B49A1F86A0044
:101190000846B0F86A00B1F86E10884222DD0020DF
:1011A0008549A1F86A000420A1F87000084690F86B
:1011B0006600834981F83300002406E07E4834301D
:1011C000005D7F490855601CC4B27D4890F833002B
:1011D000A042F3DC01207A4981F8320000207649F0
:1011E000A1F866007748B0F87000022823D175484E
:1011F000B0F86800401C7349A1F868000846B0F8D0
:101200006800022817DB0520A1F870000020A1F873
:101210006800A1F8660020216B4803F093FD20B11F
:10122000694803F025FD60490870012240F225510C
:10123000654803F0B8FC6348B0F8700003282CD16F
:101240006048B0F86A00401C5E49A1F86A00084690
:10125000B0F86A00B1F86E1088421EDD00205949CE
:10126000A1F86A000420A1F87000084690F8660012
:10127000564981F83300002406E052483430005DBE
:1012800052490855601CC4B2504890F83300A0423F
:10129000F3DC01204D4981F832004D48B0F8700070
:1012A000022823D14A48B0F86800401C4849A1F8F8
:1012B00068000846B0F86800022817DB0520A1F88E
:1012C00070000020A1F86800A1F8660020214148C4
:1012D00003F038FD20B13F4803F0CAFC32490870E2
:1012E000012240F225513B4803F05DFC3848B0F83C
:1012F000700003282CD13648B0F86A00401C3449ED
:10130000A1F86A000846B0F86A00B1F86E10884289
:101310001EDD00202E49A1F86A000420A1F870000B
:10132000084690F866002C4981F83300002406E056
:1013300027483430005D28490855601CC4B226484F
:1013400090F83300A042F3DC0120234981F83200F9
:101350001348B0F87000022842D11148B0F8680074
:10136000401C0F49A1F868000846B0F86800022840
:1013700036DB0520A1F870000020A1F86800A1F874
:1013800066002021074803F0DDFC20B1054803F08A
:101390006FFC05490870012240F2255101481DE00B
:1013A000FE080020005000401000002036070020FA
:1013B0000038014070090020A807002000440040C8
:1013C000A40900201A08002000480040D809002085
:1013D0008C080020004C00400C0A002003F0E3FBC6
:1013E0001948B0F8700003282CD11748B0F86A00EB
:1013F000401C1549A1F86A000846B0F86A00B1F827
:101400006E1088421EDD00200F49A1F86A000420FA
:10141000A1F87000084690F866000C4981F8330086
:10142000002406E008483430005D08490855601C77
:10143000C4B2064890F83300A042F3DC012003490F
:1014400081F8320010BD0000FE080020400A002094
:1014500070B504460D46FA48006805284FD2DFE80B
:1014600000F00311202E3D004FF40031F54802F04A
:10147000EDF930B90121F34802F0F3F80120F04909
:10148000086040E0F049EF4802F0BEF9012807D1BA
:1014900000227821EB4802F03AF90220E84908607E
:1014A00031E0EA49E74802F0AFF9012806D12146C8
:1014B000E44802F026F90320E149086023E0E3490B
:1014C000891CE04802F0A0F9012806D12946DD4830
:1014D00002F017F90420DA49086014E0DB49891C9E
:1014E000D84802F091F9012808D10121D54802F02D
:1014F000C4F80020D2490860012070BD03E000203C
:10150000CF49086000BF00BF0020F6E710B50446D1
:1015100021464020FFF79CFF10BD10B50446214630
:101520000020FFF795FF10BD70B50646002421E0AE
:1015300000BF04F1B001C8B2FFF7EFFF0028F8D0F8
:1015400000BF0020FFF7E9FF0028FAD000BF1020FD
:10155000FFF7E3FF0028FAD0002507E000BF304680
:10156000FFF7D4FF0028FAD0681CC5B2802DF5DB48
:10157000601CC4B2082CDBDB70BD10B5002400BFBA
:1015800005E04FF47A70FEF7DEFE601C84B2642C36
:10159000F7DB00BFAE20FFF7C0FF0028FAD000BF86
:1015A0002020FFF7BAFF0028FAD000BF1020FFF775
:1015B000B4FF0028FAD000BFB020FFF7AEFF00282C
:1015C000FAD000BFC820FFF7A8FF0028FAD000BF5C
:1015D0000020FFF7A2FF0028FAD000BF1020FFF77D
:1015E0009CFF0028FAD000BF4020FFF796FF00289C
:1015F000FAD000BF8120FFF790FF0028FAD000BF8B
:10160000FF20FFF78AFF0028FAD000BFA120FFF7D4
:1016100084FF0028FAD000BFA620FFF77EFF002835
:10162000FAD000BFA820FFF778FF0028FAD000BF4B
:101630003F20FFF772FF0028FAD000BFA420FFF779
:101640006CFF0028FAD000BFD320FFF766FF002808
:10165000FAD000BF0020FFF760FF0028FAD000BFDB
:10166000D520FFF75AFF0028FAD000BFF020FFF77F
:1016700054FF0028FAD000BFD920FFF74EFF002802
:10168000FAD000BF2220FFF748FF0028FAD000BFA1
:10169000DA20FFF742FF0028FAD000BF1220FFF740
:1016A0003CFF0028FAD000BFDB20FFF736FF002800
:1016B000FAD000BF2020FFF730FF0028FAD000BF8B
:1016C0008D20FFF72AFF0028FAD000BF1420FFF773
:1016D00024FF0028FAD000BFAF20FFF71EFF00282C
:1016E000FAD010BD00B585B00121480502F09BFA83
:1016F0000121082002F08AFAC020ADF80000032082
:101700008DF802001C208DF803006946504801F056
:101710009FFD4C4801F0EAFE0020ADF808004BF6B2
:10172000FF70ADF80A003020ADF80C004FF4806077
:10173000ADF80E000001ADF81000464801900121FF
:10174000404801F06AFF01A93E4801F0E8FE05B0FB
:1017500000BD10B5FFF7C6FFFFF70FFF0020FFF732
:10176000E3FE10BD10B5044604EB44013A4A02EB17
:1017700041013A4A1268885CFFF7C8FE012804D18B
:1017800036480068401C354908603448006806281F
:1017900004D3002031490860012010BD0020FCE77F
:1017A00070B504460D462E48006820B101280CD0C3
:1017B000022823D114E005F1B001C8B2FFF7ADFE55
:1017C000012801D1264908601CE0102141EA1410CB
:1017D000FFF7A3FE012802D102202149086011E091
:1017E00004F00F0141F00100FFF797FE012804D13A
:1017F00000201B490860012070BD03E0002018494B
:10180000086000BF00BF0020F6E72DE9F041054663
:101810000E461446002713480088205C28B9002093
:10182000104908800120BDE8F0810E480088205C46
:101830002038C7B20C480068C0B1012833D124E079
:10184000C40400200054004001000300820007008F
:10185000000C0140801A060066520008BC040020FB
:10186000C0040020B4040020B80400201649097800
:1018700001EB410105EB4101C8B23146FFF790FF92
:10188000012801D11149086011E03846FFF76AFFCD
:10189000012807D10C480088401C0B490880002013
:1018A0000A49086003E000200849086000BF00BF43
:1018B00005480088205C20B90020034908800120E9
:1018C000B1E70020AFE70000B4040020B804002016
:1018D000704770473D48008820F00100401C3B499C
:1018E00008800846007800F0010020B13848006800
:1018F0000A3037490860364800683649884208D3BC
:101900000846334908603148008820F001002F491B
:1019100008807047304800880A302F490880084600
:101920000088642807DC2948008820F00200801C19
:10193000264908800DE028480088C82806DA234890
:10194000008820F002002149088002E0002022499E
:1019500008802248006840F6B83188421FD22048EB
:1019600000880A301E49088008460088642807DC81
:101970001648008820F00400001D1449088015E076
:1019800017480088C82806DA1048008820F00400AC
:101990000E4908800AE000201149088006E00B4843
:1019A000008820F00400001D08490880704710B529
:1019B000FEF740FE0B49088010BD10B5FFF78AFF07
:1019C000FFF7A8FF0148FEF76BFE10BDCA04002018
:1019D000D004002040771B00D4040020FC04002029
:1019E000D6040020C804002010B5D349D348FFF71F
:1019F00021F810BD10B5D248008805287CD2DFE858
:101A000000F0031B334B6300CD480078401CCA49EB
:101A10000870CC4800788870CA480088000AC870EE
:101A2000C8480068000C0871C6480068000E48717C
:101A30000120C34908805FE0C1480078401CBE49CE
:101A40000870C14800788870BF480088000AC870D4
:101A5000BD480068000C0871BB480068000E487162
:101A60000220B749088047E0B5480078401CB249D9
:101A70000870B64800788870B4480088000AC870BA
:101A8000B2480068000C0871B0480068000E487148
:101A90000320AB4908802FE0A9480078401CA649E4
:101AA0000870AB4800788870A9480088000AC870A0
:101AB000A7480068000C0871A5480068000E48712E
:101AC00004209F49088017E09D480078401C9A49EF
:101AD0000870A048007888709E480088000AC87086
:101AE0009C480068000C08719A480068000E487114
:101AF00000209349088000BF00BF08208E49488617
:101B00008E48FEF797FF10BD30B502460B464FF6E4
:101B1000FF7010E012F8014B6040002109E000F076
:101B2000010424B14AF2010484EA500000E04008B4
:101B3000491C0829F3D31C00A3F10105ABB2E9D17C
:101B400030BD2DE9FF4F04460F461546984600204C
:101B50000390814682460290019083460090082FB0
:101B600001DC042F03DA002004B0BDE8F08F2078F8
:101B7000012801D00720009094F80190E078A17826
:101B800000EB012080B203906079217900EB012005
:101B90001FFA80FAB81E215C781E205C01EB002041
:101BA00080B20190B81E81B22046FFF7ADFF1FFA48
:101BB00080FB0198584501D001200090B9F1030F36
:101BC00004D1BAF1010F01D004200090002603E0F7
:101BD0000020A855701C86B2082EF9DB0398012856
:101BE00010D1B9F1030F03D15B480088029008E0DF
:101BF000B9F1060F03D15848A0F800A001E0022077
:101C0000009002E00320009000BF00BF009808BBD6
:101C1000B9F1060F0AD1002603E0A05DA855701C9B
:101C200086B2082EF9DBA8F800701CE0B9F1030FAA
:101C300019D120782870607868704FEA4A60000EE9
:101C4000A8700298000AE870029828710720A8F886
:101C5000000008E020782870607868700098A8700C
:101C60000520A8F80000B8F80000801E81B22846C0
:101C7000FFF74AFF1FFA80FBB8F80000801E05F846
:101C800000B04FEA1B21B8F80000401E2954012083
:101C90006AE700B53148418E274B3233264AFFF7B9
:101CA00050FF012801D12E49088000BD10B52B49F5
:101CB0002248FEF796FE012801D1FFF7EAFF2948E6
:101CC0000088801C2749088008460088B0F57A7F84
:101CD00004DB00200880FFF78DFE07E02048008825
:101CE00020B100201E490880FFF77EFE10BD10B510
:101CF0001D480088801C1C49088008460088B0F5F3
:101D00007A7F06DB0020088018480088401C1749AD
:101D10000880164800881049098888420BDB00209B
:101D2000124908800C480078114908700120488643
:101D30001048FEF77FFE10BDDC0A0020003801408D
:101D4000E2040020FC0400200C050020080500200F
:101D50000405002000050020DA040020740A002099
:101D6000D8040020DC040020DE040020E004002071
:101D7000100B00200044004030B587B0002400253F
:101D8000142102A803F029F9D6480088062842D277
:101D9000DFE800F0034281C1EEED56208DF8080027
:101DA00042208DF8090041208DF80A0054208DF85A
:101DB0000B0020208DF80C008DF80D008DF80E0022
:101DC0003A208DF80F00C848C8A10268684603F0A1
:101DD00077F9694602A803F00BF9C5A102A803F040
:101DE00007F902A803F010F9C0F11500C5B20024EC
:101DF00005E0C0A102A803F0FBF8601CC4B2AC422D
:101E0000F7DBB848017802AA0020FFF7FEFC0128A2
:101E100001D1B449088043E156208DF808004920DB
:101E20008DF809004E208DF80A0020208DF80B0057
:101E30008DF80C008DF80D008DF80E003A208DF80D
:101E40000F00AD48A9A10268684603F039F9694658
:101E500002A803F0CDF8A6A102A803F0C9F802A8D1
:101E600003F0D2F8C0F11500C5B2002405E0A1A12D
:101E700002A803F0BDF8601CC4B2AC42F7DB99487D
:101E8000017802AA0020FFF7C0FC012802D102203D
:101E90009449088004E156208DF808004F208DF801
:101EA000090055208DF80A0054208DF80B002020E1
:101EB0008DF80C008DF80D008DF80E003A208DF88D
:101EC0000F008E4889A10268684603F0F9F8694658
:101ED00002A803F08DF886A102A803F089F802A8F1
:101EE00003F092F8C0F11500C5B2002405E081A10D
:101EF00002A803F07DF8601CC4B2AC42F7DB79485D
:101F0000017802AA0020FFF780FC012802D10320FB
:101F100074490880C4E050208DF8080047208DF8EF
:101F200009004F208DF80A008DF80B0044208DF831
:101F30000C0020208DF80D008DF80E003A208DF851
:101F40000F006F4869A10268684603F0B9F8694656
:101F500002A803F04DF866A102A803F049F802A810
:101F600003F052F8C0F11500C5B2002407E055E0B7
:101F700013E060A102A803F03BF8601CC4B2AC42BD
:101F8000F7DB5848017802AA0020FFF73EFC012841
:101F900002D104205349088082E043208DF80800D4
:101FA00055208DF8090052208DF80A008DF80B009D
:101FB00045208DF80C004E208DF80D0054208DF832
:101FC0000E003A208DF80F004E4848A1026868467E
:101FD00003F076F8694602A803F00AF84AA102A8BD
:101FE00003F006F802A803F00FF8C0F11500C5B21F
:101FF000002405E03FA102A802F0FAFF601CC4B271
:10200000AC42F7DB3748017802AA0020FFF7FDFB5E
:10201000012802D105203349088041E043208DF892
:10202000080048208DF8090041208DF80A00522050
:102030008DF80B0047208DF80C0045208DF80D0021
:1020400020208DF80E003A208DF80F002F480078E0
:1020500000F0010020B12EA102A802F0C9FF03E0A8
:102060002DA102A802F0C4FF02A802F0CDFFC0F12A
:102070001500C5B2002405E01EA102A802F0B8FFB9
:10208000601CC4B2AC42F7DB1648017802AA0020FB
:10209000FFF7BBFB012802D100201249088000BFD6
:1020A00000BF104800881E490988884213D01D4887
:1020B00000680D4908601C4800680F4908601B480B
:1020C00000680E4908601A4800680D490860194800
:1020D00000680C490860034800881149088007B06F
:1020E00030BD0000F8040020E40400202025640036
:1020F000206D560020000000F4040020F0040020B1
:10210000EC040020E804002020754100C8040020F1
:102110002059455300000000204E4F2000000000D1
:10212000FA040020FC0400200C0500200805002013
:102130000405002000050020BD4800680F2803D2D8
:102140000020BB49086037E1B94800686E280AD80A
:10215000B74800680F38C82148435F21B0FBF1F051
:10216000B349086028E1B24800687C280BD8B04821
:1021700000686E38C82148430E21B0FBF1F0C8302A
:10218000AB49086018E1AA48006889280CD8A8481B
:1021900000687C38C82148430D21B0FBF1F000F500
:1021A000C870A349086007E1A148006897280CD8C7
:1021B0009F4800688938C82148430E21B0FBF1F0E0
:1021C00000F516709A490860F6E099480068A4285E
:1021D0000CD8974800689738C82148430D21B0FBB8
:1021E000F1F000F5487092490860E5E09048006819
:1021F000B0F5D67F0DD28E480068A438C821484378
:1022000040F20711B0FBF1F000F57A7088490860E0
:10221000D2E08748006840F2F621884210D884480E
:102220000068A0F2AB104FF47A61484340F24B11C2
:10223000B0FBF1F041F2883108447D490860BBE011
:102240007B48006840F24141884210D878480068D5
:10225000A0F2F62041F28831484340F24B11B0FB26
:10226000F1F042F21071084471490860A4E070482E
:10227000006840F28C51884210D86D480068A0F286
:10228000414041F28831484340F24B11B0FBF1F03C
:1022900043F698210844664908608DE06448006868
:1022A00040F2D661884210D861480068A0F28C5094
:1022B00041F2883148434FF4A571B0FBF1F044F688
:1022C000206108445A49086076E05948006840F6A1
:1022D0002101884210D856480068A0F2D66041F229
:1022E0008831484340F24B11B0FBF1F046F2A8119F
:1022F00008444F4908605FE04D48006840F66C11A3
:10230000884210D84A480068A0F6210041F288317E
:10231000484340F24B11B0FBF1F047F23051084412
:102320004349086048E04248006840F6B6218842C8
:1023300010D83F480068A0F66C1041F2883148433D
:102340004FF4A571B0FBF1F048F6B80108443849E4
:10235000086031E03648006840F60141884210D8F4
:1023600033480068A0F6B62041F28831484340F275
:102370004B11B0FBF1F049F6404108442C4908608C
:102380001AE02B48006840F64B51884210D8284884
:102390000068A0F6014041F2883148434FF4A5712E
:1023A000B0FBF1F04AF6C87108442149086003E027
:1023B0004CF250301E490860704710B50020FEF7FF
:1023C000C2F840F2825148436421B0FBF1F0194950
:1023D00008600120FEF7B7F84FF47A714843642192
:1023E000B0FBF1F0124908600220FEF7ACF84FF4A0
:1023F0007A7148436421B0FBF1F00F490860032073
:10240000FEF7A1F840F2564148436421B0FBF1F0D9
:102410000A4908600420FEF796F841F2D651484375
:102420006421B0FBF1F006490860FFF785FE10BD9E
:1024300000050020FC040020040500200805002001
:102440000C05002031490143314A1160704770B5D5
:10245000002100230F22C47804B32D4C246804F417
:10246000E064C4F5E064210AC1F10403CA40447881
:1024700004FA03F18478144021430901254C0678BD
:10248000A155047804F01F050124AC4005786D11B6
:10249000AD0005F1E025C5F8004109E0047804F03D
:1024A0001F050124AC401C4D0678761145F82640E6
:1024B00070BD1A4A0A400243154B1B1F1A60704731
:1024C00039B1134A121D12680243114B1B1D1A60C9
:1024D00006E00F4A121D126882430D4B1B1D1A6045
:1024E0007047042808D14FF0E021096941F0040148
:1024F0004FF0E022116107E04FF0E021096921F07F
:1025000004014FF0E0221161704700000000FA055D
:102510000CED00E000E400E080E100E080FFFF1F40
:1025200010B50446FA48844208D10121401501F053
:1025300087FB0021601501F083FB17E0F54884421A
:1025400008D10121001501F07BFB0021201501F0CD
:1025500077FB0BE0F048844208D10121C80301F069
:102560006FFB00214FF4004001F06AFB10BD30B555
:102570000246002000235068E84C20400D790C688A
:1025800044EA0524204350609068E54C2040D1E99E
:1025900002542C434D7944EA450420439060D06AAC
:1025A00020F470000C7C641EE4B2234340EA035024
:1025B000D06230BD00210160017141718160C16054
:1025C00001210174704721B1826842F001028260EA
:1025D00003E0826822F001028260704721B18268C4
:1025E00042F48072826003E0826822F4807282602A
:1025F000704710B50023CBB21AB144681C43446045
:1026000002E044689C43446010BD816841F00801C9
:1026100081607047014600208A6802F008020AB112
:10262000012000E000207047816841F004018160D2
:102630007047014600208A6802F004020AB10120B6
:1026400000E00020704721B1826842F4A00282605D
:1026500003E0826822F4A0028260704701460020F5
:102660008A6802F480020AB1012000E0002070476D
:1026700010B50A4600210023416821F46041531E31
:1026800041EA4331416010BD21B1426842F4006229
:10269000426003E0426822F4006242607047F0B595
:1026A00004460D4600200021092D11DDE068A5F14A
:1026B0000A0606EB4607072606FA07F18843A5F146
:1026C0000A0606EB460603FA06F10843E0600CE052
:1026D000206905EB4507072606FA07F1884305EB55
:1026E000450603FA06F108432061072A0FDA606BFA
:1026F000561E06EB86071F2606FA07F18843561E6C
:1027000006EB860605FA06F10843606322E00D2A0F
:102710000FDA206BD61F06EB86071F2606FA07F195
:102720008843D61F06EB860605FA06F108432063A8
:1027300010E0E06AA2F10D0606EB86071F2606FAF6
:1027400007F18843A2F10D0606EB860605FA06F1AD
:102750000843E062F0BD21B1826842F480128260D9
:1027600003E0826822F48012826070470146C86CE0
:1027700080B2704766484C300068704721B14268AB
:1027800042F48062426003E0426822F48062426068
:10279000704721B1426842F48052426003E04268CF
:1027A00022F48052426070470A460021816821F479
:1027B000E04111438160704721B1826842F40042D8
:1027C000826003E0826822F400428260704721B197
:1027D000826842F40212826003E0826822F40212EC
:1027E00082607047014600208A6802F400120AB134
:1027F000012000E000207047F0B504461546002097
:1028000000220026092911DDE068A1F10A0707EB83
:10281000470C072707FA0CF29043A1F10A0707EBD0
:10282000470703FA07F21043E0600CE0206901EB70
:10283000410C072707FA0CF2904301EB410703FA1A
:1028400007F210432061A06BC0F30156EF1C06F1A4
:10285000010CA7EB0C0707EB870C1F2707FA0CF2FC
:102860009043EF1C06F1010CA7EB0C0707EB870761
:1028700001FA07F21043A063F0BD10B50A4600212B
:102880000023816B21F44011531E41EA03518163FF
:1028900010BD08B5002300930090009B0B440093EB
:1028A000009B1A6008BD08B5024600200090009207
:1028B00001F12800009B184400900098006880B245
:1028C00008BD0A4600214168164B1940114341607A
:1028D00070474162826270470A460021416821F0D8
:1028E0001F0111434160704740B10949083109682F
:1028F00041F40001064A0832116007E0044908313A
:10290000096821F40001024A083211607047000092
:102910000024014000280140003C0140FFFEF0FF80
:10292000FDF7F1FFFFFD3FFF0246002013680B405B
:102930000BB1012000E000207047CA4302607047DD
:1029400070B502460020002300240B125568CEB259
:1029500005EA060415681D4015B10CB1012000E020
:10296000002070BD00220A12D343036070470000AC
:10297000016821F001010160002101604160816076
:10298000C1608C49884208D18A490839496841F0B8
:102990000F01884A083A51608AE08649143188421A
:1029A00008D184490839496841F0F001814A083A60
:1029B00051607DE07F492831884208D17D4908393E
:1029C000496841F470617B4A083A516070E0794986
:1029D0003C31884208D177490839496841F470414F
:1029E000744A083A516063E072495031884208D114
:1029F00070490839496841F470216E4A083A5160BB
:102A000056E06C496431884208D16A4908394968FE
:102A100041F47001674A083A516049E065497831EC
:102A2000884208D163490839496841F07061614AB8
:102A3000083A51603CE06049884206D1011F0968AC
:102A400041F00F01021F116032E05B4914318842EE
:102A500008D15949091F096841F0F001564A121F6F
:102A6000116025E054492831884208D15249091F94
:102A7000096841F47061504A121F116018E04E4914
:102A80003C31884208D14C49091F096841F4704122
:102A9000494A121F11600BE047495031884207D163
:102AA0004549091F096841F47021434A121F11600A
:102AB000704710B50022026847F6F0739A430C6A1B
:102AC0008B6823430C6923434C6923438C6923435C
:102AD000CC6923434C6A23438C6A23431A43026024
:102AE000CB6843600B6883604B68C36010BD0021F6
:102AF000016041608160C160016141618161C161CA
:102B0000016241628162704721B1026842F00102B4
:102B1000026003E0026822F00102026070471AB10D
:102B200003680B43036002E003688B430360704754
:102B30000146486880B2704701460020002201F03B
:102B400080531BB11C4B083B1A6802E0194B083B31
:102B50001A6802EA01030BB1012000E0002070476F
:102B600000F0805119B11449091F086002E01149B1
:102B700008394860704701460020002201F0805368
:102B80001BB10D4B083B1A6802E00A4B083B1A6860
:102B900002EA01030BB1012000E00020704700F0C1
:102BA000805119B10449091F086002E00149083940
:102BB00048607047080002400804024001460020B7
:102BC000FE4A106800F03800084310607047FB4967
:102BD000096821F00801F94A1160114609680143AA
:102BE00011607047F549096821F01001F34A11603E
:102BF00011460968014311607047F148EF49486088
:102C0000F04848607047EE48EC494860ED4848603D
:102C10007047EA48006940F08000E8490861704761
:102C2000E648006940F08000E449086170470420EC
:102C3000E249C96801F0010109B101200EE0DF4954
:102C4000C96801F0040109B1022007E0DB49C96845
:102C500001F0100109B1032000E00420704700B525
:102C600002460423FFF7E3FF034603E0FFF7DFFF1D
:102C70000346521E012B01D1002AF7D102B90523C8
:102C8000184600BD30B5054604244FF43020FFF748
:102C9000E6FF0446042C19D1C848006940F0020040
:102CA000C649086108464561006940F04000086176
:102CB0004FF43020FFF7D3FF0446052C06D0BF4861
:102CC000006941F6FD710840BC490861204630BDED
:102CD00010B504244FF43020FFF7C1FF0446042C44
:102CE00018D1B648006940F00400B44908610846AC
:102CF000006940F0400008614FF43020FFF7AFFF5B
:102D00000446052C06D0AD48006941F6FB71084029
:102D1000AA490861204610BD00B502460423FFF70A
:102D200086FF034603E0FFF782FF0346521E012B96
:102D300001D1002AF7D102B90523184600BD10B50C
:102D400004244FF43020FFF7E7FF0446042C18D189
:102D50009A48006940F004009849086108460069F3
:102D600040F0400008614FF43020FFF7D5FF0446E3
:102D7000052C06D09148006941F6FB7108408F4947
:102D80000861204610BD00208C49C96901F002018C
:102D900009B1012000E00020704730B5A5250424CA
:102DA000FFF7F1FF00B100254FF43020FFF757FF88
:102DB0000446042C3AD18248804988608148886062
:102DC0000846006940F0200008610846006940F0AC
:102DD000400008614FF43020FFF741FF0446042C07
:102DE0001BD17648006941F6DF71084073490861DC
:102DF0000846006940F01000086173480580E00251
:102E0000FFF72DFF0446052C10D06C48006941F6F1
:102E1000EF7108406949086108E0052C06D0674851
:102E2000006941F6EF71084064490861204630BDF1
:102E300078B506460D46042400200090E002FFF716
:102E40000EFF0446042C28D15C48006940F00100C4
:102E50005A4908613580E002FFF701FF0446042C5F
:102E600012D1B01C0090280C00990880E002FFF7F6
:102E7000F6FE0446052C10D05048006941F6FE715C
:102E800008404E49086108E0052C06D04B4800690F
:102E900041F6FE71084049490861204678BD70B589
:102EA00005460E460424E002FFF7D9FE0446042C32
:102EB00013D14248006940F00100404908612E806A
:102EC000E002FFF7CCFE0446052C06D03B48006923
:102ED00041F6FE71084039490861204670BD70B561
:102EE00005460E460424E002FFF7B9FE0446042C12
:102EF00017D13348314988603248886008460069F4
:102F000040F0100008612E80E002FFF7A8FE0446A2
:102F1000052C06D02948006941F6EF710840274981
:102F20000861204670BD2DE9F04304464FF6FF7658
:102F30003746B046B1460425E443E6B2C4F307275A
:102F4000C4F307484FEA1469E802FFF788FE054614
:102F5000042D4AD11A48194988601A4888600846E1
:102F6000006940F010000861FF2E06D016480830B6
:102F70000680E802FFF773FE0546042D08D1FF2FF7
:102F800006D011480A300780E802FFF768FE0546C0
:102F9000042D0AD1B8F1FF0F07D00B480C30A0F870
:102FA0000080E802FFF75BFE0546042D14D1B9F15D
:102FB000FF0F11D004480E3008E00000002002404E
:102FC00023016745AB89EFCD00F8FF1FA0F8009003
:102FD000E802FFF744FE0546052D06D06848006963
:102FE00041F6EF710840664908612846BDE8F08364
:102FF00030B5054604244FF43020FFF730FE044678
:10300000042C41D15F485E4988605F48886008466B
:10301000006940F0200008610846006940F0400067
:1030200008614FF43020FFF71AFE0446042C22D129
:103030005348006941F6DF7108405149086108466C
:10304000006940F0100008611DB100204F49088060
:1030500002E0A5204D4908804FF43020FFF7FFFD26
:103060000446052C10D04648006941F6EF7108402F
:103070004349086108E0052C06D04148006941F643
:10308000DF7108403E490861204630BDF0B5054675
:103090000E46174604243B48394988603A48886000
:1030A000E002FFF7DCFD0446042C19D13448006926
:1030B00040F010003249086147F0F80030432843DF
:1030C0003249891C0880E002FFF7C9FD0446052C3F
:1030D00006D02B48006941F6EF7108402849086185
:1030E0002046F0BD2648C069800870472448006A21
:1030F000704700202249096801F0200109B1012030
:1031000000E00020704729B11D4A126902431C4BA0
:103110001A6104E01A4A12698243194B1A61704716
:1031200001460020012908D1154AD26902F00102A6
:103130000AB1012008E0002006E0114AD2680A40E6
:103140000AB1012000E0002070470D49C8607047B7
:1031500004200B49C96801F0010109B101200EE00A
:103160000749C96801F0040109B1022007E00449D8
:10317000C96801F0100109B1032000E00420704784
:103180000020024023016745AB89EFCD00F8FF1F07
:1031900010B50446CC48844208D10121042000F037
:1031A0004FFD0021042000F04BFD46E0C74884425B
:1031B00008D10121082000F043FD0021082000F083
:1031C0003FFD3AE0C248844208D10121102000F0BE
:1031D00037FD0021102000F033FD2EE0BD48844271
:1031E00008D10121202000F02BFD0021202000F03B
:1031F00027FD22E0B848844208D10121402000F098
:103200001FFD0021402000F01BFD16E0B348844262
:1032100008D10121802000F013FD0021802000F062
:103220000FFD0AE0AE48844207D10121801500F06D
:1032300007FD0021A01500F003FD10BD10B5012110
:10324000084600F0FDFC0021012000F0F9FC10BD53
:103250002DE9F0410246002500260020002300242D
:10326000002791F803C00CF00F0591F803C00CF093
:10327000100CBCF1000F03D091F802C04CEA050518
:1032800091F800C0BCF1000F31D0146800202BE091
:103290004FF0010C0CFA00F3B1F800C00CEA030681
:1032A0009E4220D183004FF00F0C0CFA03F7BC4371
:1032B00005FA03FC4CEA040491F803C0BCF1280FA2
:1032C00006D14FF0010C0CFA00FCC2F814C00AE061
:1032D00091F803C0BCF1480F05D14FF0010C0CFA76
:1032E00000FCC2F810C0401C0828D1D31460B1F80B
:1032F00000C0BCF1FF0F34DD546800202EE000F167
:10330000080C4FF0010808FA0CF3B1F800C00CEA01
:1033100003069E4221D183004FF00F0C0CFA03F7F5
:10332000BC4305FA03FC4CEA040491F803C0BCF169
:10333000280F05D100F1080C08FA0CF8C2F8148027
:1033400091F803C0BCF1480F07D100F1080C4FF011
:10335000010808FA0CF8C2F81080401C0828CED3E7
:103360005460BDE8F0814FF6FF7101800221817049
:103370000421C17070470246002093680B400BB1D6
:10338000012000E0002070470146886880B2704745
:1033900002460020D3680B400BB1012000E0002062
:1033A00070470146C86880B270470161704741614B
:1033B00070470AB1016100E041617047C160704728
:1033C0004FF480320A43826181618261826982693D
:1033D000704702460020434B18684FF68073184030
:1033E00040EA021008433F4B186070473E49C861ED
:1033F0007047F0B50A46002300240021002500F0A4
:103400000046B6F1004F02D1364EF16901E0354E6B
:103410007168C0F3034583B200F44016B6F5401F4F
:1034200008D121F070612F4E766826F070662D4F1E
:103430007E6012E000F48016B6F5801F06D10326E8
:1034400006FA05F4A14341F0706106E0460D36012D
:1034500003FA06F6B14341F0706122B1460D360120
:1034600003FA06F6314300F00046B6F1004F02D1F0
:103470001C4EF16101E01B4E7160F0BD30B50022C1
:103480008B071C0F0F2303FA04F2164B08338C1022
:1034900053F824309343134C08348D1044F82530EE
:1034A00023468C1053F824308C07240F00FA04F4C0
:1034B00023430C4C08348D1044F8253030BD0A49A4
:1034C000DC3108607047000000080140000C01403A
:1034D000001001400014014000180140001C014090
:1034E00000200140000001400000204210B50446C9
:1034F000F448844209D10121480500F0AEFB0021C7
:103500004FF4001000F0A9FB08E00121880500F04D
:10351000A4FB00214FF4800000F09FFB10BD2DE9BB
:10352000F04385B004460D460026B1460427DFF877
:103530009883A6884FF6C0700640684600F0F9FAF6
:10354000DDF80880E148B8FBF0F01FFA80F946EAA0
:103550000906A68020884FF6FE71084020800026CC
:10356000DB49286888420CD828684000B8FBF0F096
:1035700087B2042F00DA04273E4309F101002084BA
:1035800027E0E8884BF6FF71884206D1286800EBF7
:103590004000B8FBF0F087B209E0286800EBC001FA
:1035A00001EB0010B8FBF0F087B247F48047C7F397
:1035B0000B0008B947F0010747F4004006434FF4F9
:1035C000967009FB00F04FF47A7190FBF1F0401C0B
:1035D0002084A683208840F00100208026884FF6B2
:1035E000F5300640A8886989084306432680A889E3
:1035F00029890843208105B0BDE8F08341F2883174
:103600000160002181804BF6FF71C18000210181A2
:1036100041814FF480418181704721B1028842F09D
:103620000102028004E002884FF6FE731A40028015
:10363000704721B1828842F40062828004E082886F
:103640004FF2FF731A408280704721B1828842F4A2
:103650008052828004E082884EF6FF731A40828096
:10366000704721B1028842F48072028004E002882F
:103670004FF6FF631A400280704721B1028842F47E
:103680000072028004E002884FF6FF531A40028065
:10369000704721B1028842F48062028004E002880F
:1036A0004FF6FF331A40028070470A460021818995
:1036B0004FF60173194002F0FE03194381817047F0
:1036C00021B1828942F00102828104E082894FF6B1
:1036D000FE731A408281704721B1028842F0400295
:1036E000028004E002884FF6BF731A4002807047E0
:1036F0001AB183880B43838002E083888B438380E5
:103700007047018270470146088AC0B2704712B103
:1037100041F0010102E04FF6FE731940018270474B
:1037200008B50246002000900092009808440090DE
:103730000098008808BD21B1028842F4004202804E
:1037400003E00288C2F30E0202807047B1F5005F09
:1037500004D1028842F40052028004E002884DF64F
:10376000FF731A400280704721B1028842F48052F0
:10377000028004E002884EF6FF731A400280704710
:10378000B1F5006F04D1028842F40062028004E0C7
:1037900002884FF2FF731A400280704721B10288FD
:1037A00042F02002028004E002884FF6DF731A40E4
:1037B000028070470146088B0012704721B10288D1
:1037C00042F01002028004E002884FF6EF731A40C4
:1037D0000280704721B9028842F08002028004E032
:1037E00002884FF67F731A4002807047B1F5804F10
:1037F00005D0828B4BF6FF731A40828303E0828BE5
:1038000042F480428283704770B50246002400254E
:1038100000230020958A138B1B0445EA030626F03B
:103820007F4404EA01068E4201D1012000E000201D
:1038300070BD10B501460020002300228B8A0A8B40
:10384000120443EA020424F07F4010BD0CB5024686
:10385000002000230193009300920B0F019321F0AD
:103860007F41019B1BB1009B1433009303E0090CC3
:10387000009B18330093009B1B680B400BB1012089
:1038800000E000200CBD002221F07F42D343838260
:10389000704730B5024600200023948801F0E065AF
:1038A00004EA154321F07F41948A0C4014B10BB116
:1038B000012000E0002030BD002221F07F42D343F0
:1038C000838270470054004000127A0040420F008B
:1038D000A0860100704700BFFEE700BFFEE700BF03
:1038E000FEE700BFFEE77047704770477047000073
:1038F0000E49086070470D49486070470B49886061
:1039000070474AF6AA200949086070474CF6CC4037
:1039100006490860704701460020044AD2680A4000
:103920000AB1012000E00020704700000030004094
:10393000DF48006840F00100DD4908600846406843
:10394000DC490840DA49486008460068DA4908401E
:10395000D74908600846006820F4802008600846BF
:10396000406820F4FE0048604FF41F0088607047F4
:10397000CF49096821F48031CD4A116011460968A8
:1039800021F480211160B0F5803F03D0B0F5802F85
:103990000ED106E0C649096841F48031C44A11607D
:1039A00007E0C349096841F4A021C14A116000E061
:1039B00000BF00BF704710B5014600220023002061
:1039C0004A11012A02D1BA4C236806E0022A02D128
:1039D000B74C236A01E0B64C636A01F01F02012470
:1039E00094401C400CB1012000E0002010BD38B50F
:1039F000002000900024002500BF3120FFF7DBFFEE
:103A000005460098401C00900098B0F5A06F01D0CA
:103A1000002DF2D03120FFF7CEFF08B1012400E0E5
:103A20000024204638BD01460020A14A106820F03D
:103A3000F80040EAC10010607047A0490860704774
:103A4000024600209A4B586820F47C1042EA010399
:103A50001843974B5860704798490866704701466D
:103A60000020934A506820F00300084350607047DC
:103A70008F48406800F00C007047014600208C4AD7
:103A8000506820F0F0000843506070470146002065
:103A9000874A506820F4E060084350607047014650
:103AA0000020834A506820F4605040EAC100506012
:103AB000704729B17E4A527A02437D4B5A7204E024
:103AC0007B4A527A82437A4B5A7270477B49D8318B
:103AD0000860704701460020754A506820F4404055
:103AE0000843506070470021714A20321170704ABB
:103AF00082F82010012802D004280AD104E0012114
:103B00006B4A2032117005E00521694A203211709C
:103B100000E000BF00BF7047694908607047644912
:103B2000096A0143624A1162704765494439086075
:103B3000704730B500210022002400235C4D6D68E1
:103B400005F00C0121B1042905D0082923D105E095
:103B50005C4D056022E05B4D05601FE0544D6D68D3
:103B600005F47012524D6D6805F48034022505EBA2
:103B700092421CB9544D554305600BE04C4D6D68A5
:103B800005F400351DB1504D5543056002E04D4D23
:103B90005543056002E04B4D056000BF00BF444D3A
:103BA0006D6805F0F0010909484D6B5C0568DD4062
:103BB00045603F4D6D6805F4E061090A434D6B5C5B
:103BC0004568DD4085603A4D6D6805F46051C90A6D
:103BD0003E4D6B5C4568DD40C560354D6D6805F454
:103BE0004041890B3A4D6B5CC568B5FBF3F5056147
:103BF00030BD29B12E4A526902432D4B5A6104E06F
:103C00002B4A526982432A4B5A61704729B1284A8C
:103C100092690243264B9A6104E0254A92698243E5
:103C2000234B9A61704729B1214AD2690243204B44
:103C3000DA6104E01E4AD26982431D4BDA617047A3
:103C400029B11B4AD2680243194BDA6004E0184AD2
:103C5000D2688243164BDA60704729B1144A126960
:103C60000243134B1A6104E0114A12698243104B5C
:103C70001A61704712494039086070470F49C8649B
:103C800070470B49C87170470948406A40F080701E
:103C900007494862704701460020054A92680A4079
:103CA0000AB1012000E00020704701498872704786
:103CB000001002400000FFF8FFFFF6FE0000424245
:103CC0008004424200127A0000093D0010050020E5
:103CD0002005002010B50446FE48844208D1012189
:103CE000C014FFF7ADFF0021E014FFF7A9FFC4E007
:103CF000B4F1804F08D101210846FFF7AEFF002143
:103D00000120FFF7AAFFB8E0F348844208D101215F
:103D10000220FFF7A2FF00210220FFF79EFFACE088
:103D2000EE48844208D101210420FFF796FF0021CC
:103D30000420FFF792FFA0E0E948844208D1012166
:103D40000820FFF78AFF00210820FFF786FF94E094
:103D5000E448844208D101211020FFF77EFF0021B2
:103D60001020FFF77AFF88E0DF48844208D1012164
:103D70002020FFF772FF00212020FFF76EFF7CE07C
:103D8000DA48844208D101214014FFF759FF00218D
:103D90006014FFF755FF70E0D548844209D1012136
:103DA000C804FFF74DFF00214FF40020FFF748FF44
:103DB00063E0D048844209D101210805FFF740FFA4
:103DC00000214FF48010FFF73BFF56E0CA488442C1
:103DD00009D101214805FFF733FF00214FF40010FE
:103DE000FFF72EFF49E0C548844208D10121402059
:103DF000FFF733FF00214020FFF72FFF3DE0C048D1
:103E0000844208D101218020FFF727FF0021802074
:103E1000FFF723FF31E0BB48844208D10121801520
:103E2000FFF71BFF0021A015FFF717FF25E0B6489D
:103E3000844209D101210804FFF702FF00214FF459
:103E40008030FFF7FDFE18E0B048844209D101211F
:103E50004804FFF7F5FE00214FF40030FFF7F0FEB5
:103E60000BE0AB48844208D101218804FFF7E8FE4B
:103E700000214FF48020FFF7E3FE10BD00220288EE
:103E8000944B98420ED0994B98420BD0B0F1804F92
:103E900008D0914B984205D0904B984202D0904B5D
:103EA000984204D14FF68F731A404B881A438D4BBA
:103EB000984207D08C4B984204D04FF6FF431A40EB
:103EC000CB881A4302808B8883850B880385814BBE
:103ED00098420BD0854B984208D08B4B984205D026
:103EE0008A4B984202D08A4B984201D10B7A0386C2
:103EF00001238382704770B5002400220023058CC3
:103F00004FF6FE7635400584028C8388048B4FF68D
:103F10008F752C40B51E2C400D882C43751E2A40F1
:103F20000D892A434D882A436A4DA8420BD06F4D14
:103F3000A84208D0744DA84205D0744DA84202D0C2
:103F4000734DA84213D14FF6F7752A404D892A4385
:103F50004FF6FB752A408D882A434FF6FF652B40AC
:103F60004FF6FF552B408D892B43CD892B43838002
:103F70000483CD888586028470BD70B5002400223C
:103F80000023058C4FF6EF7635400584028C83883C
:103F9000048B48F6FF752C404FF6FF452C400D88EA
:103FA0004FF6FF7606EA05252C434FF6DF752A40CB
:103FB0000D8906EA05152A434D8806EA05152A43A8
:103FC000444DA84202D0494DA8421DD14FF67F75FD
:103FD0002A404D894FF6FF7606EA05152A434FF62B
:103FE000BF752A408D8806EA05152A434FF6FF352E
:103FF0002B404FF2FF752B408D8906EA85052B4338
:10400000CD8906EA85052B4383800483CD88058707
:10401000028470BD70B5002400220023058C4FF689
:10402000FF6635400584028C8388848B4FF68F753C
:104030002C404FF6FC752C400D882C434FF6FF5555
:104040002A400D894FF6FF7606EA05252A434D885A
:1040500006EA05252A431F4DA84202D0234DA84257
:104060001DD14FF2FF752A404D894FF6FF7606EAC3
:1040700005252A434FF6FF352A408D8806EA052597
:104080002A434EF6FF752B404DF6FF752B408D8968
:1040900006EA05152B43CD8906EA05152B438380D7
:1040A0008483CD888587028470BD70B5002200238B
:1040B0000024058C4EF6FF7635400584038C8488F9
:1040C000828B48F6FF752A404FF6FF452A400D883F
:1040D00020E00000002C01400004004000080040E7
:1040E000000C00400010004000140040003401406B
:1040F000004C0140005001400054014000180040B5
:10410000001C0040002000400040014000440140ED
:10411000004801404FF6FF7606EA05252A434DF692
:10412000FF752B400D8906EA05352B434D8806EABD
:1041300005352B43FB4DA84202D0FB4DA84208D1C8
:104140004BF6FF752C408D894FF6FF7606EA8515F4
:104150002C4384808283CD88A0F84050038470BDB6
:10416000828B4FF2FF331A408283828B4FF6FF73AC
:1041700003EA01231A4382837047F0B50C461546C3
:10418000002100220026078C4EF6FF7C07EA0C0770
:104190000784818B028C4FF6FF7707EA043640F6DE
:1041A000FF4739404FF6FF7707EA052739434FF6B7
:1041B000FF7707EA033739434DF6FF773A4046F475
:1041C00080573A4381830284F0BD828B4FF6F373AC
:1041D0001A408283828B0A4382837047F0B50C4673
:1041E0001546002100220026078C4FF6FF6C07EAD7
:1041F0000C070784818B028C4FF6FF7707EA0426B1
:104200004FF60C7739404FF6FF7707EA03172F4335
:1042100039434FF6FF573A4046F480773A4381835B
:104220000284F0BD028B4FF2FF331A400283028BEF
:104230004FF6FF7303EA01231A4302837047F0B578
:104240000C461546002100220026078C4FF6EF7C15
:1042500007EA0C070784018B028C4FF6FF7707EA09
:10426000041640F6FF4739404FF6FF7707EA033759
:1042700039434FF6FF7707EA052739434FF6DF77D3
:104280003A4046F010073A4301830284F0BD028BA6
:104290004FF6F3731A400283028B0A43028370477E
:1042A000F0B50C46154600210022068C4FF6FE772D
:1042B0003E400684018B028C4FF60C7631407E1C0A
:1042C00006EA03162E4331437E1E324044F00106B7
:1042D000324301830284F0BD70B505460C46208848
:1042E00050B92389A28861882846FFF7D9FFE18861
:1042F0002846FFF7CCFF25E0208804280AD123892F
:10430000A28861882846FFF79AFFE1882846FFF7D0
:1043100089FF17E0208808280AD12389A2886188AC
:104320002846FFF75BFFE1882846FFF74EFF09E0CC
:104330002389A28861882846FFF71FFFE188284665
:10434000FFF70EFF70BD2DE9F04105460C46002633
:104350000127608808B9022600E00026A08801280D
:1043600001D1022700E001272088A0B92389A28873
:1043700061882846FFF794FFE1882846FFF787FF0A
:1043800023893A4631462846FFF759FFE1882846F7
:10439000FFF748FF13E02389A28861882846FFF7CA
:1043A0004EFFE1882846FFF73DFF23893A46314614
:1043B0002846FFF775FFE1882846FFF768FFBDE84C
:1043C000F0810A884B881A438B881A43CB881A439A
:1043D0000B891A434B891A438B891A43A0F844204E
:1043E00070474FF6FF71818000210180C1804180BC
:1043F000017270470021018041808180C18001816C
:1044000041818181C181704700210180418001216A
:1044100081800021C180018170470021018041809D
:104420008180C180018141818181704721B10288F1
:1044300042F00102028004E002884FF6FE731A4047
:104440000280704731B1B0F8442042F40042A0F835
:10445000442005E0B0F84420C2F30E02A0F8442046
:1044600070471AB183890B43838102E083898B43B0
:10447000838170478182704741EA0203A0F8483087
:1044800070471AB183890B43838102E083898B4390
:104490008381704701894FF6F8721140018170479E
:1044A0000A46002101894FF68F731940114301819B
:1044B000704730B504460D4629462046FFF7F0FF09
:1044C000208940F00700208130BD2DE9F0410446ED
:1044D0000D4616461F46602D06D13B460122314649
:1044E0002046FFF7ACFE05E03B4601223146204660
:1044F000FFF7D6FE29462046FFF7D2FF208940F07D
:1045000007002081BDE8F08130B50C46002101890B
:10451000C9B24FF6FF7505EA032515432543294324
:10452000018130BD002C0140003401402DE9F041F3
:1045300005460E4617469846002443463A463146FD
:104540002846FFF7E1FF2C894FF6F870044044F04D
:1045500007044FF68F70044044F070042C81BDE8CE
:10456000F081F0B504460D4616461F463B463246DE
:1045700029462046FFF7C8FF208940F4804020816B
:10458000F0BD0185828270470A46002101884FF6FE
:104590008F731940114301807047F0B50C461546E2
:1045A0001E460021002200230189028B038C4FF656
:1045B000F877394021434FF6FC473A4040F2011763
:1045C0003A434FF6DD773B404FF6FF7707EA061791
:1045D0002F433B43018102830384F0BD0A4600213F
:1045E000018B4FF68F7319401143018370470A46C0
:1045F0000021018B48F6FF7319404FF6FF7303EA61
:1046000002231943018370470A460021818B4FF62C
:104610008F7319401143818370470A460021818BB3
:1046200048F6FF7319404FF6FF7303EA022319435C
:104630008183704721B1028842F08002028004E049
:1046400002884FF67F731A400280704721B182883A
:1046500042F00402828004E082884FF6FB731A4025
:104660008280704721B1828842F00802828004E093
:1046700082884FF6F7731A408280704721B1828892
:1046800042F00102828004E082884FF6FE731A40F5
:10469000828070470A460021018B4FF6F77319405C
:1046A0001143018370470A460021018B4FF2FF73CB
:1046B00019404FF6FF7303EA022319430183704741
:1046C0000A460021818B4FF6F7731940114381830D
:1046D00070470A460021818B4FF2FF7319404FF655
:1046E000FF7303EA02231943818370470A460021BE
:1046F000018B4FF6FB7319401143018370470A4643
:104700000021018B4FF6FF3319404FF6FF7303EA88
:1047100002231943018370470A460021818B4FF61B
:10472000FB7319401143818370470A460021818B36
:104730004FF6FF3319404FF6FF7303EA0223194384
:10474000818370470A460021018B4FF67F73194021
:104750001143018370470A460021018BC1F30E010A
:104760004FF6FF7303EA02231943018370470A4699
:104770000021818B4FF67F7319401143818370476D
:104780000A460021818BC1F30E014FF6FF7303EA45
:1047900002231943818370470A460021018C4FF69A
:1047A000FD7319401143018470470A460021018CB2
:1047B0004FF6F77319401143018470470A460021F0
:1047C000018C4FF6DF7319404FF6FF7303EA0213B3
:1047D0001943018470470A460021018C4FF67F730C
:1047E00019404FF6FF7303EA02131943018470471F
:1047F0000A460021018C4FF6FF5319404FF6FF7314
:1048000003EA02231943018470470A460021018C00
:104810004FF2FF7319404FF6FF7303EA0223194367
:10482000018470470A460021018C4DF6FF73194040
:104830004FF6FF7303EA023319430184704730B522
:10484000002301248C40A3B2048C9C430484048C78
:1048500002FA01F5ADB22C43048430BD30B500231B
:1048600004248C40A3B2048C9C430484048C02FA7C
:1048700001F5ADB22C43048430BD70B50346002071
:1048800000241846183001258D40ACB21D8CA5437C
:104890001D8409B1082909D100EB6100056825F0E4
:1048A000700505600568154305600EE00D1FC5F332
:1048B0004E052844056825F4E045056005684FF677
:1048C000FF7606EA02263543056070BD21B10288F5
:1048D00042F00202028004E002884FF6FD731A40A3
:1048E0000280704721B1028842F00402028004E095
:1048F00002884FF6FB731A400280704721B182880C
:1049000042F08002828004E082884FF67F731A4072
:104910008280704702884FF6F7731A40028002883F
:104920000A430280704782884FF68F731A40828054
:1049300082880A438280704702894FF6F8731A40D2
:10494000028102890A430281704702894FF67F7310
:104950001A40028102890A430281704781847047AC
:1049600081857047818670470187704781877047CE
:10497000A0F84010704702884FF6FF431A400280AB
:1049800002880A43028070470146888E70470146BC
:10499000088F70470146888F70470146B1F8400084
:1049A00070470146888C70470146088D7047024663
:1049B0000020138A0B400BB1012000E0002070475B
:1049C000CA430282704730B502460020002300240B
:1049D000158A05EA0103958905EA010413B10CB1B2
:1049E000012000E0002030BDCA4302827047000071
:1049F00010B50446FB48844209D101218803FFF722
:104A00001FF900214FF48040FFF71AF932E0F64811
:104A1000844209D101214804FFF71FF900214FF416
:104A20000030FFF71AF925E0F048844209D101214E
:104A30008804FFF712F900214FF48020FFF70DF9E9
:104A400018E0EB48844209D10121C804FFF705F9B9
:104A500000214FF40020FFF700F90BE0E548844205
:104A600008D101210805FFF7F8F800214FF4801064
:104A7000FFF7F3F810BD2DE9F04786B005460E4666
:104A80000024A24600BFA1460027B08900B100BFA4
:104A90002F462C8A4CF6FF700440F08804432C8289
:104AA000AC894EF6F3100440B0883189084371890F
:104AB00008430443AC81AC8A4FF6FF400440B08900
:104AC0000443AC8201A8FFF734F8C648874202D1FC
:104AD000DDF810A001E0DDF80CA0A88900F400408A
:104AE00040B10AEBCA0000EB0A1031684900B0FB84
:104AF000F1F807E00AEBCA0000EB0A103168890000
:104B0000B0FBF1F86420B8FBF0F004012009642147
:104B100001FB1089A88900F4004040B1322000EB6D
:104B2000C900B0FBF1F000F00700044308E03220B8
:104B300000EB09106421B0FBF1F000F00F0004431A
:104B40002C8106B0BDE8F0874FF4165101600021BA
:104B50008180C18001810C214181002181817047C8
:104B600010B502460020108A4FF2FF0318400B8850
:104B70004C8823438C882343CC88234318431082DA
:104B800010BD0021018041808180C180704721B12A
:104B9000828942F40052828104E082894DF6FF73DB
:104BA0001A4082817047F0B5034600240026002594
:104BB000002040F66A17B94200D100BF1846C1F381
:104BC000421401F01F06012707FA06F5012C01D156
:104BD0000C3004E0022C01D1103000E014301AB186
:104BE00007682F43076002E00768AF430760F0BD26
:104BF0001AB1838A0B43838202E0838A8B438382C8
:104C00007047028A4FF6F0731A400282028A0A4302
:104C10000282704782894FF2FF731A408281828933
:104C20000A438281704721B1828942F00202828167
:104C300004E082894FF6FD731A4082817047028A30
:104C40004FF6DF731A400282028A0A4302827047DB
:104C500021B1028A42F48042028204E0028A4BF6C9
:104C6000FF731A4002827047C1F3080282807047C6
:104C700001468888C0F308007047818941F001012E
:104C800081817047028BD2B20283028B42EA0122F9
:104C900002837047028B02F47F420283028B0A4335
:104CA0000283704721B1828A42F02002828204E0AE
:104CB000828A4FF6DF731A408282704721B1828A5E
:104CC00042F01002828204E0828A4FF6EF731A40AB
:104CD0008282704721B1828A42F00802828204E017
:104CE000828A4FF6F7731A408282704721B1828917
:104CF00042F40042828103E08289C2F30E02828183
:104D0000704721B1828A42F40062828204E0828A82
:104D10004FF2FF731A4082827047828A4FF6FB730C
:104D20001A408282828A0A438282704721B1828A33
:104D300042F00202828204E0828A4FF6FD731A403A
:104D40008282704702460020B1F5007F00D100BF8B
:104D500013880B400BB1012000E00020704701F4E4
:104D60000072B2F5007F00D100BFCA4302807047D5
:104D700070B50246002400230025002040F66A1684
:104D8000B14200D100BFC1F3421501F01F0301265B
:104D900006FA03F3012D02D19689334006E0022D75
:104DA00002D1168A334001E0968A33400C12012664
:104DB00006FA04F41688344013B10CB1012000E067
:104DC000002070BD10B50022002340F66A14A142F5
:104DD00000D100BF0A1201249440A3B2DC43048036
:104DE00010BD000000380140004400400048004071
:104DF000004C0040005000400CB500200190009095
:104E00006A48006840F480306849086000BF67481D
:104E1000006800F4003000900198401C0190009858
:104E200018B90198B0F5A06FF1D16048006800F49E
:104E3000003010B10120009001E0002000900098A7
:104E4000012843D15A48006840F0100058490860D2
:104E50000846006820F0030008600846006840F03B
:104E60000200086051484068504948600846406860
:104E700048600846406840F48060486008464068E2
:104E800020F47C1048600846406840F4E810486010
:104E90000846006840F08070086000BF4348006822
:104EA00000F000700028F9D04048406820F003006E
:104EB0003E4948600846406840F00200486000BF34
:104EC0003A48406800F00C000828F9D10CBD10B534
:104ED000FFF792FF10BD10B53448006840F00100A4
:104EE0003249086008464068324908402F49486006
:104EF00008460068304908402C49086008460068A8
:104F000020F4802008600846406820F4FE004860D5
:104F10004FF41F008860FFF7DAFF10BD10B50021C5
:104F200000200022214B5B6803F00C0121B1042911
:104F300006D0082928D107E0204B214C236027E028
:104F40001E4B1F4C236023E0184B5B6803F470106A
:104F5000164B5B6803F48032022303EB904022B9C6
:104F6000184B4343164C23600DE0104B5B6803F471
:104F7000003323B1134B4343114C236003E00F4B29
:104F800043430F4C236003E00C4B0D4C236000BFE8
:104F900000BF064B5B68C3F303130B4CE15C084B8B
:104FA0001B68CB40064C236010BD0000001002407F
:104FB000002002400000FFF8FFFFF6FE00127A001A
:104FC0002405002000093D0028050020D2B201E0A0
:104FD00000F8012B491EFBD270470022F6E710B5FE
:104FE00013460A4604461946FFF7F0FF204610BD57
:104FF000421E12F8013F002BFBD111F8013B02F8D1
:10500000013B002BF9D17047421C10F8011B00290D
:10501000FBD1801A704730B50B4601460020202294
:10502000012409E021FA02F59D4205D303FA02F5B5
:10503000491B04FA02F52844151EA2F10102F1DC15
:1050400030BD0000064C074D06E0E06840F001036B
:1050500094E8070098471034AC42F6D3FBF76CF89D
:10506000805A0008A05A000870B58C1810F8015B2F
:1050700015F0070301D110F8013B2A1106D110F8F1
:10508000012B03E010F8016B01F8016B5B1EF9D1F5
:105090002B0705D40023521E0DD401F8013BFAE77B
:1050A00010F8013BCB1A921C03E013F8015B01F8E6
:1050B000015B521EF9D5A142D8D3002070BD00007B
:1050C0000FB4084B10B504A902AA039800F01CF80D
:1050D000044602A9002000F0C1F8204610BC5DF88B
:1050E00014FB00005D52000802E008C8121F08C14E
:1050F000002AFAD170477047002001E001C1121F59
:10510000002AFBD1704700002DE9FF4F89B09B4674
:105110000446002506E025280BD05A460B999047F7
:10512000641C6D1C20780028F5D10DB02846BDE820
:10513000F08F0027B8460122474900E0074314F8E2
:10514000013F203B02FA03F00842F7D120782E28D5
:1051500019D114F8010F47F004072A280ED06FF078
:105160002F022078A0F1300109290CD808EB880122
:1051700002EB410100EB0108641CF2E70A98641C91
:1051800050F8048B0A9020780028CED0642808D0EC
:10519000692806D075281ED05A460B9990476D1C79
:1051A00058E00A994FF00A0901C90A91002802DA69
:1051B00040422D2102E0390504D52B218DF8201025
:1051C000012103E0F90704D02021F7E78A4608AE61
:1051D0000DE00021FAE70A994FF00A0901C90A9186
:1051E000F7E74946FFF717FF303106F8011D0028A1
:1051F000F7D1ADEB060000F12009780701D44FF09C
:105200000108C84502DDA8EB090000E00020804647
:10521000002706E008A85A46C05D0B9990476D1C10
:105220007F1C5745F6DB04E030205A460B99904727
:105230006D1CB8F10001A8F10108F5DC05E016F8D5
:10524000010B5A460B9990476D1CB9F10001A9F169
:105250000109F4DC641C65E7092801000A68531C95
:105260000B60107070470000000000000000002F6D
:10527000000000000700070000147F147F140024C2
:105280002A7F2A12006264081323003649552250EF
:1052900000000503000000001C2241000000412224
:1052A0001C000014083E08140008083E080800000E
:1052B00000A0600000080808080800006060000006
:1052C000002010080402003E5149453E0000427F84
:1052D0004000004261514946002141454B310018D0
:1052E00014127F10002745454539003C4A49493092
:1052F000000171090503003649494936000649494C
:10530000291E000036360000000056360000000856
:105310001422410000141414141400004122140833
:1053200000020151090600324959513E007C121118
:10533000127C007F49494936003E41414122007FAD
:105340004141221C007F49494941007F0909090167
:10535000003E4149497A007F0808087F0000417FEC
:105360004100002040413F01007F08142241007F9E
:1053700040404040007F020C027F007F0408107F05
:10538000003E4141413E007F09090906003E41516E
:10539000215E007F0919294600464949493100012B
:1053A000017F0101003F4040403F001F2040201F7F
:1053B000003F4038403F0063140814630007087042
:1053C000080700615149454300007F4141000055F5
:1053D0002A552A55000041417F00000402010204C1
:1053E00000404040404000000102040000205454AE
:1053F0005478007F484444380038444444200038FE
:105400004444487F00385454541800087E0901026F
:105410000018A4A4A47C007F080404780000447D44
:105420004000004080847D00007F10284400000080
:10543000417F4000007C04180478007C0804047854
:1054400000384444443800FC242424180018242440
:1054500018FC007C0804040800485454542000043C
:105460003F444020003C4040207C001C2040201C49
:10547000003C4030403C004428102844001CA0A0C0
:10548000A07C004464544C441414141414140000FC
:10549000000000000000000000000000000000000C
:1054A00000F8000000000000003330000000001091
:1054B0000C06100C0600000000000000000040C0B8
:1054C0007840C0784000043F04043F0404000070AA
:1054D00088FC08300000001820FF211E0000F008A2
:1054E000F000E018000000211C031E211E0000F047
:1054F0000888700000001E2123241927211010168F
:105500000E0000000000000000000000000000008D
:1055100000E018040200000000071820400000020C
:105520000418E00000000040201807000000404080
:1055300080F0804040000202010F010202000000E2
:1055400000F0000000000101011F01010100000046
:1055500000000000000080B07000000000000000AB
:105560000000000000000001010101010101000034
:1055700000000000000000303000000000000000CB
:10558000000080601804006018060100000000E0C0
:1055900010080810E000000F102020100F0000106D
:1055A00010F8000000000020203F202000000070C4
:1055B00008080888700000302824222130000030BC
:1055C0000888884830000018202020110E000000B4
:1055D000C02010F8000000070424243F240000F835
:1055E0000888880808000019212020110E0000E01A
:1055F000108888180000000F112020110E000038BC
:105600000808C83808000000003F000000000070D3
:10561000880808887000001C222121221C0000E05C
:1056200010080810E0000000312222110F000000D5
:1056300000C0C0000000000000303000000000008A
:1056400000800000000000008060000000000000FA
:105650008040201008000001020408102000404093
:1056600040404040400004040404040404000008D6
:10567000102040800000002010080402010000708B
:1056800048080808F0000000003036010000C03073
:10569000C828E810E0000718272423140B00000096
:1056A000C038E0000000203C23020227382008F820
:1056B000888888700000203F202020110E00C03014
:1056C000080808083800071820202010080008F8EB
:1056D00008080810E000203F202020100F0008F8E4
:1056E0008888E8081000203F20202320180008F8B0
:1056F0008888E8081000203F200003000000C03028
:1057000008080838000007182020221E020008F8A8
:1057100008000008F808203F210101213F2000086F
:1057200008F8080800000020203F202000000000AA
:105730000808F8080800C08080807F00000008F892
:1057400088C028180800203F20012638200008F8CB
:10575000080000000000203F20202020300008F832
:10576000F800F8F80800203F003F003F200008F84C
:1057700030C00008F808203F200007183F00E01064
:1057800008080810E0000F10202020100F0008F873
:1057900008080808F000203F210101010000E01086
:1057A00008080810E0000F18242438504F0008F8AB
:1057B000888888887000203F2000030C302000700B
:1057C0008808080838000038202121221C00180809
:1057D00008F8080818000000203F2000000008F822
:1057E00008000008F808001F202020201F0008786B
:1057F000880000C83808000007380E010000F808CB
:1058000000F80008F800033C0700073C03000818F4
:1058100068808068180820302C03032C302008385A
:10582000C800C83808000000203F20000000100811
:105830000808C83808002038262120201800000059
:1058400000FE020202000000007F40404000000C09
:1058500030C000000000000000010638C000000257
:105860000202FE000000004040407F0000000000F7
:10587000040202020400000000000000000000001A
:105880000000000000008080808080808080000216
:105890000204000000000000000000000000000002
:1058A0008080808000000019242222223F2008F8F6
:1058B000008080000000003F112020110E00000039
:1058C000008080800000000E1120202011000000C8
:1058D00000808088F800000E112020103F2000007A
:1058E000808080800000001F22222222130000807E
:1058F00080F0888888180020203F202000000000C9
:10590000808080808000006B94949493600008F8FD
:10591000008080800000203F210000203F20008088
:105920009898000000000020203F20200000000088
:1059300000809898000000C08080807F000008F8F8
:10594000000080808000203F24022D3020000008CD
:1059500008F8000000000020203F20200000808088
:10596000808080808000203F20003F20003F80809A
:10597000008080800000203F210000203F200000A8
:10598000808080800000001F202020201F00808059
:1059900000808000000080FFA12020110E00000088
:1059A000008080808000000E112020A0FF80808079
:1059B00080008080800020203F2120000100000026
:1059C00080808080800000332424242419000080FB
:1059D00080E0808000000000001F20200000808008
:1059E000000000808000001F202020103F208080C9
:1059F00080000080808000010E3008060100808059
:105A00000080008080800F300C030C300F0000807D
:105A10008000808080000020312E0E3120008080A8
:105A200080000080808080818E70180601000080D8
:105A30008080808080000021302C222130000000F6
:105A40000000807C020200000000003F4040000097
:105A50000000FF00000000000000FF000000000246
:105A6000027C800000000040403F00000000000673
:105A70000101020204040000000000000000000018
:105A8000A05A0008000000203805000068500008F7
:105A9000685C000838050020100A0000F850000873
:105AA0000115200F0202FAFAAAAAFFFFAAAAFAFA1F
:105AB0000202100F4272723A7A424B5B52626213D8
:105AC00077661016203C1CFFFFB0B424243F3FE44F
:105AD000E4242420020203FFFF300B01051D59C1FD
